{
	"data": {
		"bytecode": {
			"linkReferences": {},
			"object": "60806040526040518060400160405280600781526020017f50617374656973000000000000000000000000000000000000000000000000008152506005908051906020019062000051929190620004cb565b50600073da8ea22d092307874f30a1f277d1388dca0ba97a905080600260006101000a81548173ffffffffffffffffffffffffffffffffffffffff021916908373ffffffffffffffffffffffffffffffffffffffff160217905550600260009054906101000a900473ffffffffffffffffffffffffffffffffffffffff1673ffffffffffffffffffffffffffffffffffffffff16633a9151b030600562000103466200035160201b620005ec1760201c565b60405160200162000116929190620007eb565b6040516020818303038152906040526040518363ffffffff1660e01b815260040162000144929190620008d9565b6020604051808303816000875af115801562000164573d6000803e3d6000fd5b505050506040513d601f19601f820116820180604052508101906200018a91906200094d565b6004819055506005620001a8466200035160201b620005ec1760201c565b620001c06004546200035160201b620005ec1760201c565b604051602001620001d493929190620009a5565b60405160208183030381529060405260039080519060200190620001fa929190620004cb565b50600260009054906101000a900473ffffffffffffffffffffffffffffffffffffffff1673ffffffffffffffffffffffffffffffffffffffff16633a9151b030600562000252466200035160201b620005ec1760201c565b6040516020016200026592919062000ac0565b6040516020818303038152906040526040518363ffffffff1660e01b815260040162000293929190620008d9565b6020604051808303816000875af1158015620002b3573d6000803e3d6000fd5b505050506040513d601f19601f82011682018060405250810190620002d991906200094d565b6007819055506005620002f7466200035160201b620005ec1760201c565b6200030f6007546200035160201b620005ec1760201c565b6040516020016200032393929190620009a5565b6040516020818303038152906040526006908051906020019062000349929190620004cb565b505062000d18565b606060008214156200039b576040518060400160405280600181526020017f30000000000000000000000000000000000000000000000000000000000000008152509050620004c6565b600082905060005b60008214620003d3578080620003b99062000b35565b915050600a82620003cb919062000bb2565b9150620003a3565b60008167ffffffffffffffff811115620003f257620003f162000bea565b5b6040519080825280601f01601f191660200182016040528015620004255781602001600182028036833780820191505090505b5090505b60008514620004bf5760018262000441919062000c19565b9150600a8562000452919062000c54565b603062000460919062000c8c565b60f81b81838151811062000479576200047862000ce9565b5b60200101907effffffffffffffffffffffffffffffffffffffffffffffffffffffffffffff1916908160001a905350600a85620004b7919062000bb2565b945062000429565b8093505050505b919050565b828054620004d990620005d0565b90600052602060002090601f016020900481019282620004fd576000855562000549565b82601f106200051857805160ff191683800117855562000549565b8280016001018555821562000549579182015b82811115620005485782518255916020019190600101906200052b565b5b5090506200055891906200055c565b5090565b5b80821115620005775760008160009055506001016200055d565b5090565b7f435245415445205441424c450000000000000000000000000000000000000000815250565b7f4e487b7100000000000000000000000000000000000000000000000000000000600052602260045260246000fd5b60006002820490506001821680620005e957607f821691505b602082108114156200060057620005ff620005a1565b5b50919050565b600081905092915050565b60008190508160005260206000209050919050565b600081546200063581620005d0565b62000641818662000606565b945060018216600081146200065f57600181146200067157620006a8565b60ff19831686528186019350620006a8565b6200067c8562000611565b60005b83811015620006a0578154818901526001820191506020810190506200067f565b838801955050505b50505092915050565b600081519050919050565b60005b83811015620006dc578082015181840152602081019050620006bf565b83811115620006ec576000848401525b50505050565b6000620006ff82620006b1565b6200070b818562000606565b93506200071d818560208601620006bc565b80840191505092915050565b7f2028696420696e742c206861636b6174686f6e4164642074696e79746578742c60008201527f206861636b6174686f6e5f6e616d652074696e79746578742c2064657363726960208201527f7074696f6e20746578742c206f7267616e697a65722074696e79746578742c2060408201527f746f74616c5f7072697a6520696e742c20646174652074696e7974657874293b606082015250565b6000620007d360808362000606565b9150620007e08262000729565b608082019050919050565b6000620007f8826200057b565b600c820191506200080a828562000626565b9150620008188284620006f2565b91506200082582620007c4565b91508190509392505050565b600073ffffffffffffffffffffffffffffffffffffffff82169050919050565b60006200085e8262000831565b9050919050565b620008708162000851565b82525050565b600082825260208201905092915050565b6000601f19601f8301169050919050565b6000620008a582620006b1565b620008b1818562000876565b9350620008c3818560208601620006bc565b620008ce8162000887565b840191505092915050565b6000604082019050620008f0600083018562000865565b818103602083015262000904818462000898565b90509392505050565b600080fd5b6000819050919050565b620009278162000912565b81146200093357600080fd5b50565b60008151905062000947816200091c565b92915050565b6000602082840312156200096657620009656200090d565b5b6000620009768482850162000936565b91505092915050565b7f5f00000000000000000000000000000000000000000000000000000000000000815250565b6000620009b3828662000626565b9150620009c0826200097f565b600182019150620009d28285620006f2565b9150620009df826200097f565b600182019150620009f18284620006f2565b9150819050949350505050565b7f20286861636b6174686f6e4164642074696e79746578742c2070726f6a65637460008201527f4f776e65722074696e79746578742c2070726f6a6563744e616d65207465787460208201527f2c206465736372697074696f6e20746578742c2070726f6a6563744c696e6b2060408201527f74696e7974657874293b00000000000000000000000000000000000000000000606082015250565b600062000aa8606a8362000606565b915062000ab582620009fe565b606a82019050919050565b600062000acd826200057b565b600c8201915062000adf828562000626565b915062000aed8284620006f2565b915062000afa8262000a99565b91508190509392505050565b7f4e487b7100000000000000000000000000000000000000000000000000000000600052601160045260246000fd5b600062000b428262000912565b91507fffffffffffffffffffffffffffffffffffffffffffffffffffffffffffffffff82141562000b785762000b7762000b06565b5b600182019050919050565b7f4e487b7100000000000000000000000000000000000000000000000000000000600052601260045260246000fd5b600062000bbf8262000912565b915062000bcc8362000912565b92508262000bdf5762000bde62000b83565b5b828204905092915050565b7f4e487b7100000000000000000000000000000000000000000000000000000000600052604160045260246000fd5b600062000c268262000912565b915062000c338362000912565b92508282101562000c495762000c4862000b06565b5b828203905092915050565b600062000c618262000912565b915062000c6e8362000912565b92508262000c815762000c8062000b83565b5b828206905092915050565b600062000c998262000912565b915062000ca68362000912565b9250827fffffffffffffffffffffffffffffffffffffffffffffffffffffffffffffffff0382111562000cde5762000cdd62000b06565b5b828201905092915050565b7f4e487b7100000000000000000000000000000000000000000000000000000000600052603260045260246000fd5b6133418062000d286000396000f3fe608060405260043610620000555760003560e01c806326337075146200005f5780634387feab146200008f5780636a65b25d14620000d3578063c10771941462000117578063e8bd3a89146200015b576200005d565b366200005d57005b005b3480156200006c57600080fd5b506200007762000192565b604051620000869190620009ea565b60405180910390f35b3480156200009c57600080fd5b50620000bb6004803603810190620000b5919062000a4c565b6200019e565b604051620000ca919062000ac3565b60405180910390f35b348015620000e057600080fd5b50620000ff6004803603810190620000f9919062000c42565b620001e8565b6040516200010e919062000d82565b60405180910390f35b3480156200012457600080fd5b506200014360048036038101906200013d919062000a4c565b620002ba565b60405162000152919062000ac3565b60405180910390f35b62000179600480360381019062000173919062000d9f565b620002fa565b6040516200018992919062000ece565b60405180910390f35b60008080549050905090565b6000808281548110620001b657620001b562000efb565b5b9060005260206000200160009054906101000a900473ffffffffffffffffffffffffffffffffffffffff169050919050565b6000600260009054906101000a900473ffffffffffffffffffffffffffffffffffffffff1673ffffffffffffffffffffffffffffffffffffffff1663eaf5d04e3060075460068a8a8a8a8a6040516020016200024a96959493929190620011c0565b6040516020818303038152906040526040518463ffffffff1660e01b81526004016200027993929190620012e9565b600060405180830381600087803b1580156200029457600080fd5b505af1158015620002a9573d6000803e3d6000fd5b505050506001905095945050505050565b60008181548110620002cb57600080fd5b906000526020600020016000915054906101000a900473ffffffffffffffffffffffffffffffffffffffff1681565b600080600080549050600181905550883373ffffffffffffffffffffffffffffffffffffffff1631101562000366576040517f08c379a00000000000000000000000000000000000000000000000000000000081526004016200035d90620013a3565b60405180910390fd5b883414620003ab576040517f08c379a0000000000000000000000000000000000000000000000000000000008152600401620003a2906200143b565b60405180910390fd5b6000600154898b33604051620003c190620009c1565b620003d094939291906200145d565b604051809103906000f080158015620003ed573d6000803e3d6000fd5b5090508073ffffffffffffffffffffffffffffffffffffffff166108fc8b9081150290604051600060405180830381858888f1935050505015801562000437573d6000803e3d6000fd5b506000819080600181540180825580915050600190039060005260206000200160009091909190916101000a81548173ffffffffffffffffffffffffffffffffffffffff021916908373ffffffffffffffffffffffffffffffffffffffff160217905550600260009054906101000a900473ffffffffffffffffffffffffffffffffffffffff1673ffffffffffffffffffffffffffffffffffffffff1663eaf5d04e306004546003620004ec600154620005ec565b6200050f8773ffffffffffffffffffffffffffffffffffffffff16602062000766565b8e8e8e6200051d8f620005ec565b8e6040516020016200053798979695949392919062001546565b6040516020818303038152906040526040518463ffffffff1660e01b81526004016200056693929190620012e9565b600060405180830381600087803b1580156200058157600080fd5b505af115801562000596573d6000803e3d6000fd5b505050507fcf817fc3589af37a2e4881422b7cf7a8c17525c79b822ea82ae40227b0e9890260015482604051620005cf9291906200165d565b60405180910390a180600154925092505097509795505050505050565b6060600082141562000636576040518060400160405280600181526020017f3000000000000000000000000000000000000000000000000000000000000000815250905062000761565b600082905060005b600082146200066e5780806200065490620016b9565b915050600a8262000666919062001736565b91506200063e565b60008167ffffffffffffffff8111156200068d576200068c62000afb565b5b6040519080825280601f01601f191660200182016040528015620006c05781602001600182028036833780820191505090505b5090505b600085146200075a57600182620006dc91906200176e565b9150600a85620006ed9190620017a9565b6030620006fb9190620017e1565b60f81b81838151811062000714576200071362000efb565b5b60200101907effffffffffffffffffffffffffffffffffffffffffffffffffffffffffffff1916908160001a905350600a8562000752919062001736565b9450620006c4565b8093505050505b919050565b6060600060028360026200077b91906200183e565b620007879190620017e1565b67ffffffffffffffff811115620007a357620007a262000afb565b5b6040519080825280601f01601f191660200182016040528015620007d65781602001600182028036833780820191505090505b5090507f30000000000000000000000000000000000000000000000000000000000000008160008151811062000811576200081062000efb565b5b60200101907effffffffffffffffffffffffffffffffffffffffffffffffffffffffffffff1916908160001a9053507f78000000000000000000000000000000000000000000000000000000000000008160018151811062000878576200087762000efb565b5b60200101907effffffffffffffffffffffffffffffffffffffffffffffffffffffffffffff1916908160001a90535060006001846002620008ba91906200183e565b620008c69190620017e1565b90505b600181111562000970577f3031323334353637383961626364656600000000000000000000000000000000600f8616601081106200090c576200090b62000efb565b5b1a60f81b82828151811062000926576200092562000efb565b5b60200101907effffffffffffffffffffffffffffffffffffffffffffffffffffffffffffff1916908160001a905350600485901c94508062000968906200189f565b9050620008c9565b5060008414620009b7576040517f08c379a0000000000000000000000000000000000000000000000000000000008152600401620009ae906200191e565b60405180910390fd5b8091505092915050565b6119cb806200194183390190565b6000819050919050565b620009e481620009cf565b82525050565b600060208201905062000a016000830184620009d9565b92915050565b6000604051905090565b600080fd5b600080fd5b62000a2681620009cf565b811462000a3257600080fd5b50565b60008135905062000a468162000a1b565b92915050565b60006020828403121562000a655762000a6462000a11565b5b600062000a758482850162000a35565b91505092915050565b600073ffffffffffffffffffffffffffffffffffffffff82169050919050565b600062000aab8262000a7e565b9050919050565b62000abd8162000a9e565b82525050565b600060208201905062000ada600083018462000ab2565b92915050565b600080fd5b600080fd5b6000601f19601f8301169050919050565b7f4e487b7100000000000000000000000000000000000000000000000000000000600052604160045260246000fd5b62000b358262000aea565b810181811067ffffffffffffffff8211171562000b575762000b5662000afb565b5b80604052505050565b600062000b6c62000a07565b905062000b7a828262000b2a565b919050565b600067ffffffffffffffff82111562000b9d5762000b9c62000afb565b5b62000ba88262000aea565b9050602081019050919050565b82818337600083830152505050565b600062000bdb62000bd58462000b7f565b62000b60565b90508281526020810184848401111562000bfa5762000bf962000ae5565b5b62000c0784828562000bb5565b509392505050565b600082601f83011262000c275762000c2662000ae0565b5b813562000c3984826020860162000bc4565b91505092915050565b600080600080600060a0868803121562000c615762000c6062000a11565b5b600086013567ffffffffffffffff81111562000c825762000c8162000a16565b5b62000c908882890162000c0f565b955050602086013567ffffffffffffffff81111562000cb45762000cb362000a16565b5b62000cc28882890162000c0f565b945050604086013567ffffffffffffffff81111562000ce65762000ce562000a16565b5b62000cf48882890162000c0f565b935050606086013567ffffffffffffffff81111562000d185762000d1762000a16565b5b62000d268882890162000c0f565b925050608086013567ffffffffffffffff81111562000d4a5762000d4962000a16565b5b62000d588882890162000c0f565b9150509295509295909350565b60008115159050919050565b62000d7c8162000d65565b82525050565b600060208201905062000d99600083018462000d71565b92915050565b600080600080600080600060e0888a03121562000dc15762000dc062000a11565b5b600062000dd18a828b0162000a35565b975050602062000de48a828b0162000a35565b965050604088013567ffffffffffffffff81111562000e085762000e0762000a16565b5b62000e168a828b0162000c0f565b955050606088013567ffffffffffffffff81111562000e3a5762000e3962000a16565b5b62000e488a828b0162000c0f565b945050608088013567ffffffffffffffff81111562000e6c5762000e6b62000a16565b5b62000e7a8a828b0162000c0f565b93505060a062000e8d8a828b0162000a35565b92505060c088013567ffffffffffffffff81111562000eb15762000eb062000a16565b5b62000ebf8a828b0162000c0f565b91505092959891949750929550565b600060408201905062000ee5600083018562000ab2565b62000ef46020830184620009d9565b9392505050565b7f4e487b7100000000000000000000000000000000000000000000000000000000600052603260045260246000fd5b7f494e5345525420494e544f200000000000000000000000000000000000000000815250565b7f4e487b7100000000000000000000000000000000000000000000000000000000600052602260045260246000fd5b6000600282049050600182168062000f9857607f821691505b6020821081141562000faf5762000fae62000f50565b5b50919050565b600081905092915050565b60008190508160005260206000209050919050565b6000815462000fe48162000f7f565b62000ff0818662000fb5565b945060018216600081146200100e5760018114620010205762001057565b60ff1983168652818601935062001057565b6200102b8562000fc0565b60005b838110156200104f578154818901526001820191506020810190506200102e565b838801955050505b50505092915050565b7f20286861636b6174686f6e4164642c2070726f6a6563744f776e65722c20707260008201527f6f6a6563744e616d652c206465736372697074696f6e2c2070726f6a6563744c60208201527f696e6b292056414c554553202800000000000000000000000000000000000000604082015250565b6000620010e4604d8362000fb5565b9150620010f18262001060565b604d82019050919050565b600081519050919050565b60005b83811015620011275780820151818401526020810190506200110a565b8381111562001137576000848401525b50505050565b60006200114a82620010fc565b62001156818562000fb5565b93506200116881856020860162001107565b80840191505092915050565b7f2c00000000000000000000000000000000000000000000000000000000000000815250565b7f2900000000000000000000000000000000000000000000000000000000000000815250565b6000620011cd8262000f2a565b600c82019150620011df828962000fd5565b9150620011ec82620010d5565b9150620011fa82886200113d565b9150620012078262001174565b6001820191506200121982876200113d565b9150620012268262001174565b6001820191506200123882866200113d565b9150620012458262001174565b6001820191506200125782856200113d565b9150620012648262001174565b6001820191506200127682846200113d565b915062001283826200119a565b600182019150819050979650505050505050565b600082825260208201905092915050565b6000620012b582620010fc565b620012c1818562001297565b9350620012d381856020860162001107565b620012de8162000aea565b840191505092915050565b600060608201905062001300600083018662000ab2565b6200130f6020830185620009d9565b8181036040830152620013238184620012a8565b9050949350505050565b7f4861636b6174686f6e466163746f72793a20696e73756666696369656e74206660008201527f756e64732e000000000000000000000000000000000000000000000000000000602082015250565b60006200138b60258362001297565b915062001398826200132d565b604082019050919050565b60006020820190508181036000830152620013be816200137c565b9050919050565b7f4861636b6174686f6e466163746f72793a20556e6d61746368696e672066756e60008201527f64732e0000000000000000000000000000000000000000000000000000000000602082015250565b60006200142360238362001297565b91506200143082620013c5565b604082019050919050565b60006020820190508181036000830152620014568162001414565b9050919050565b6000608082019050620014746000830187620009d9565b620014836020830186620009d9565b620014926040830185620009d9565b620014a1606083018462000ab2565b95945050505050565b7f202869642c206861636b6174686f6e4164642c206861636b6174686f6e5f6e6160008201527f6d652c206465736372697074696f6e2c206f7267616e697a65722c20746f746160208201527f6c5f7072697a652c2064617465292056414c5545532028000000000000000000604082015250565b60006200152e60578362000fb5565b91506200153b82620014aa565b605782019050919050565b6000620015538262000f2a565b600c8201915062001565828b62000fd5565b915062001572826200151f565b915062001580828a6200113d565b91506200158d8262001174565b6001820191506200159f82896200113d565b9150620015ac8262001174565b600182019150620015be82886200113d565b9150620015cb8262001174565b600182019150620015dd82876200113d565b9150620015ea8262001174565b600182019150620015fc82866200113d565b9150620016098262001174565b6001820191506200161b82856200113d565b9150620016288262001174565b6001820191506200163a82846200113d565b915062001647826200119a565b6001820191508190509998505050505050505050565b6000604082019050620016746000830185620009d9565b62001683602083018462000ab2565b9392505050565b7f4e487b7100000000000000000000000000000000000000000000000000000000600052601160045260246000fd5b6000620016c682620009cf565b91507fffffffffffffffffffffffffffffffffffffffffffffffffffffffffffffffff821415620016fc57620016fb6200168a565b5b600182019050919050565b7f4e487b7100000000000000000000000000000000000000000000000000000000600052601260045260246000fd5b60006200174382620009cf565b91506200175083620009cf565b92508262001763576200176262001707565b5b828204905092915050565b60006200177b82620009cf565b91506200178883620009cf565b9250828210156200179e576200179d6200168a565b5b828203905092915050565b6000620017b682620009cf565b9150620017c383620009cf565b925082620017d657620017d562001707565b5b828206905092915050565b6000620017ee82620009cf565b9150620017fb83620009cf565b9250827fffffffffffffffffffffffffffffffffffffffffffffffffffffffffffffffff038211156200183357620018326200168a565b5b828201905092915050565b60006200184b82620009cf565b91506200185883620009cf565b9250817fffffffffffffffffffffffffffffffffffffffffffffffffffffffffffffffff04831182151516156200189457620018936200168a565b5b828202905092915050565b6000620018ac82620009cf565b91506000821415620018c357620018c26200168a565b5b600182039050919050565b7f537472696e67733a20686578206c656e67746820696e73756666696369656e74600082015250565b60006200190660208362001297565b91506200191382620018ce565b602082019050919050565b600060208201905081810360008301526200193981620018f7565b905091905056fe6080604052604051620019cb380380620019cb8339818101604052810190620000299190620001c8565b8360008190555080600160006101000a81548173ffffffffffffffffffffffffffffffffffffffff021916908373ffffffffffffffffffffffffffffffffffffffff16021790555060018060146101000a81548160ff021916908315150217905550816004819055504260028190555060025483620000a9919062000269565b600381905550600160066000600160009054906101000a900473ffffffffffffffffffffffffffffffffffffffff1673ffffffffffffffffffffffffffffffffffffffff1673ffffffffffffffffffffffffffffffffffffffff1681526020019081526020016000206000018190555050505050620002c6565b600080fd5b6000819050919050565b6200013d8162000128565b81146200014957600080fd5b50565b6000815190506200015d8162000132565b92915050565b600073ffffffffffffffffffffffffffffffffffffffff82169050919050565b6000620001908262000163565b9050919050565b620001a28162000183565b8114620001ae57600080fd5b50565b600081519050620001c28162000197565b92915050565b60008060008060808587031215620001e557620001e462000123565b5b6000620001f5878288016200014c565b945050602062000208878288016200014c565b93505060406200021b878288016200014c565b92505060606200022e87828801620001b1565b91505092959194509250565b7f4e487b7100000000000000000000000000000000000000000000000000000000600052601160045260246000fd5b6000620002768262000128565b9150620002838362000128565b9250827fffffffffffffffffffffffffffffffffffffffffffffffffffffffffffffffff03821115620002bb57620002ba6200023a565b5b828201905092915050565b6116f580620002d66000396000f3fe6080604052600436106100a05760003560e01c8063a3c4a17a11610064578063a3c4a17a1461017e578063df0af9da146101a7578063dfbf53ae146101c3578063e2ba53f0146101ee578063ed7a4e0b14610219578063f3fddffe14610244576100a7565b80630121b93f146100a9578063013cf08b146100d25780630e4451ca146101115780634895367b1461013c578063609ff1bd14610153576100a7565b366100a757005b005b3480156100b557600080fd5b506100d060048036038101906100cb9190610d09565b610284565b005b3480156100de57600080fd5b506100f960048036038101906100f49190610d09565b61047f565b60405161010893929190610e1f565b60405180910390f35b34801561011d57600080fd5b50610126610561565b6040516101339190610e5d565b60405180910390f35b34801561014857600080fd5b50610151610587565b005b34801561015f57600080fd5b50610168610690565b6040516101759190610e78565b60405180910390f35b34801561018a57600080fd5b506101a560048036038101906101a09190610ff4565b610718565b005b6101c160048036038101906101bc9190610d09565b6109c1565b005b3480156101cf57600080fd5b506101d8610a89565b6040516101e59190611071565b60405180910390f35b3480156101fa57600080fd5b50610203610aaf565b604051610210919061108c565b60405180910390f35b34801561022557600080fd5b5061022e610b6b565b60405161023b9190611071565b60405180910390f35b34801561025057600080fd5b5061026b600480360381019061026691906110ae565b610bbf565b60405161027b94939291906110f6565b60405180910390f35b6000600660003373ffffffffffffffffffffffffffffffffffffffff1673ffffffffffffffffffffffffffffffffffffffff168152602001908152602001600020905060008160000154141561030f576040517f08c379a000000000000000000000000000000000000000000000000000000000815260040161030690611187565b60405180910390fd5b8060010160009054906101000a900460ff1615610361576040517f08c379a0000000000000000000000000000000000000000000000000000000008152600401610358906111f3565b60405180910390fd5b6007828154811061037557610374611213565b5b906000526020600020906003020160020160009054906101000a900473ffffffffffffffffffffffffffffffffffffffff1673ffffffffffffffffffffffffffffffffffffffff163373ffffffffffffffffffffffffffffffffffffffff161415610415576040517f08c379a000000000000000000000000000000000000000000000000000000000815260040161040c9061128e565b60405180910390fd5b60018160010160006101000a81548160ff02191690831515021790555081816002018190555080600001546007838154811061045457610453611213565b5b9060005260206000209060030201600101600082825461047491906112dd565b925050819055505050565b6007818154811061048f57600080fd5b90600052602060002090600302016000915090508060000180546104b290611362565b80601f01602080910402602001604051908101604052809291908181526020018280546104de90611362565b801561052b5780601f106105005761010080835404028352916020019161052b565b820191906000526020600020905b81548152906001019060200180831161050e57829003601f168201915b5050505050908060010154908060020160009054906101000a900473ffffffffffffffffffffffffffffffffffffffff16905083565b600160009054906101000a900473ffffffffffffffffffffffffffffffffffffffff1681565b600060066000600160009054906101000a900473ffffffffffffffffffffffffffffffffffffffff1673ffffffffffffffffffffffffffffffffffffffff1673ffffffffffffffffffffffffffffffffffffffff16815260200190815260200160002090508060010160009054906101000a900460ff1661063d576040517f08c379a0000000000000000000000000000000000000000000000000000000008152600401610634906113e0565b60405180910390fd5b610645610b6b565b73ffffffffffffffffffffffffffffffffffffffff166108fc6004549081150290604051600060405180830381858888f1935050505015801561068c573d6000803e3d6000fd5b5050565b6000806000905060005b6007805490508110156107135781600782815481106106bc576106bb611213565b5b906000526020600020906003020160010154111561070057600781815481106106e8576106e7611213565b5b90600052602060002090600302016001015491508092505b808061070b90611400565b91505061069a565b505090565b600354421061073d576000600160146101000a81548160ff0219169083151502179055505b60011515600160149054906101000a900460ff16151514610793576040517f08c379a000000000000000000000000000000000000000000000000000000000815260040161078a90611495565b60405180910390fd5b600660008373ffffffffffffffffffffffffffffffffffffffff1673ffffffffffffffffffffffffffffffffffffffff16815260200190815260200160002060010160009054906101000a900460ff1615610823576040517f08c379a000000000000000000000000000000000000000000000000000000000815260040161081a90611501565b60405180910390fd5b6000600660008473ffffffffffffffffffffffffffffffffffffffff1673ffffffffffffffffffffffffffffffffffffffff16815260200190815260200160002060000154146108a8576040517f08c379a000000000000000000000000000000000000000000000000000000000815260040161089f9061156d565b60405180910390fd5b6001600660008473ffffffffffffffffffffffffffffffffffffffff1673ffffffffffffffffffffffffffffffffffffffff1681526020019081526020016000206000018190555060076040518060600160405280838152602001600081526020018473ffffffffffffffffffffffffffffffffffffffff1681525090806001815401808255809150506001900390600052602060002090600302016000909190919091506000820151816000019080519060200190610969929190610c1c565b506020820151816001015560408201518160020160006101000a81548173ffffffffffffffffffffffffffffffffffffffff021916908373ffffffffffffffffffffffffffffffffffffffff16021790555050505050565b670de0b6b3a7640000816109d5919061158d565b6004546109e291906112dd565b600481905550803373ffffffffffffffffffffffffffffffffffffffff16311015610a42576040517f08c379a0000000000000000000000000000000000000000000000000000000008152600401610a3990611633565b60405180910390fd5b6004543414610a86576040517f08c379a0000000000000000000000000000000000000000000000000000000008152600401610a7d9061169f565b60405180910390fd5b50565b600560009054906101000a900473ffffffffffffffffffffffffffffffffffffffff1681565b60606007610abb610690565b81548110610acc57610acb611213565b5b90600052602060002090600302016000018054610ae890611362565b80601f0160208091040260200160405190810160405280929190818152602001828054610b1490611362565b8015610b615780601f10610b3657610100808354040283529160200191610b61565b820191906000526020600020905b815481529060010190602001808311610b4457829003601f168201915b5050505050905090565b60006007610b77610690565b81548110610b8857610b87611213565b5b906000526020600020906003020160020160009054906101000a900473ffffffffffffffffffffffffffffffffffffffff16905090565b60066020528060005260406000206000915090508060000154908060010160009054906101000a900460ff16908060010160019054906101000a900473ffffffffffffffffffffffffffffffffffffffff16908060020154905084565b828054610c2890611362565b90600052602060002090601f016020900481019282610c4a5760008555610c91565b82601f10610c6357805160ff1916838001178555610c91565b82800160010185558215610c91579182015b82811115610c90578251825591602001919060010190610c75565b5b509050610c9e9190610ca2565b5090565b5b80821115610cbb576000816000905550600101610ca3565b5090565b6000604051905090565b600080fd5b600080fd5b6000819050919050565b610ce681610cd3565b8114610cf157600080fd5b50565b600081359050610d0381610cdd565b92915050565b600060208284031215610d1f57610d1e610cc9565b5b6000610d2d84828501610cf4565b91505092915050565b600081519050919050565b600082825260208201905092915050565b60005b83811015610d70578082015181840152602081019050610d55565b83811115610d7f576000848401525b50505050565b6000601f19601f8301169050919050565b6000610da182610d36565b610dab8185610d41565b9350610dbb818560208601610d52565b610dc481610d85565b840191505092915050565b610dd881610cd3565b82525050565b600073ffffffffffffffffffffffffffffffffffffffff82169050919050565b6000610e0982610dde565b9050919050565b610e1981610dfe565b82525050565b60006060820190508181036000830152610e398186610d96565b9050610e486020830185610dcf565b610e556040830184610e10565b949350505050565b6000602082019050610e726000830184610e10565b92915050565b6000602082019050610e8d6000830184610dcf565b92915050565b610e9c81610dfe565b8114610ea757600080fd5b50565b600081359050610eb981610e93565b92915050565b600080fd5b600080fd5b7f4e487b7100000000000000000000000000000000000000000000000000000000600052604160045260246000fd5b610f0182610d85565b810181811067ffffffffffffffff82111715610f2057610f1f610ec9565b5b80604052505050565b6000610f33610cbf565b9050610f3f8282610ef8565b919050565b600067ffffffffffffffff821115610f5f57610f5e610ec9565b5b610f6882610d85565b9050602081019050919050565b82818337600083830152505050565b6000610f97610f9284610f44565b610f29565b905082815260208101848484011115610fb357610fb2610ec4565b5b610fbe848285610f75565b509392505050565b600082601f830112610fdb57610fda610ebf565b5b8135610feb848260208601610f84565b91505092915050565b6000806040838503121561100b5761100a610cc9565b5b600061101985828601610eaa565b925050602083013567ffffffffffffffff81111561103a57611039610cce565b5b61104685828601610fc6565b9150509250929050565b600061105b82610dde565b9050919050565b61106b81611050565b82525050565b60006020820190506110866000830184611062565b92915050565b600060208201905081810360008301526110a68184610d96565b905092915050565b6000602082840312156110c4576110c3610cc9565b5b60006110d284828501610eaa565b91505092915050565b60008115159050919050565b6110f0816110db565b82525050565b600060808201905061110b6000830187610dcf565b61111860208301866110e7565b6111256040830185610e10565b6111326060830184610dcf565b95945050505050565b7f486173206e6f20726967687420746f20766f7465000000000000000000000000600082015250565b6000611171601483610d41565b915061117c8261113b565b602082019050919050565b600060208201905081810360008301526111a081611164565b9050919050565b7f416c726561647920766f7465642e000000000000000000000000000000000000600082015250565b60006111dd600e83610d41565b91506111e8826111a7565b602082019050919050565b6000602082019050818103600083015261120c816111d0565b9050919050565b7f4e487b7100000000000000000000000000000000000000000000000000000000600052603260045260246000fd5b7f43616e6e6f7420766f746520666f7220796f757273656c662100000000000000600082015250565b6000611278601983610d41565b915061128382611242565b602082019050919050565b600060208201905081810360008301526112a78161126b565b9050919050565b7f4e487b7100000000000000000000000000000000000000000000000000000000600052601160045260246000fd5b60006112e882610cd3565b91506112f383610cd3565b9250827fffffffffffffffffffffffffffffffffffffffffffffffffffffffffffffffff03821115611328576113276112ae565b5b828201905092915050565b7f4e487b7100000000000000000000000000000000000000000000000000000000600052602260045260246000fd5b6000600282049050600182168061137a57607f821691505b6020821081141561138e5761138d611333565b5b50919050565b7f4f7267616e697a6572206e6565647320746f20766f74652e0000000000000000600082015250565b60006113ca601883610d41565b91506113d582611394565b602082019050919050565b600060208201905081810360008301526113f9816113bd565b9050919050565b600061140b82610cd3565b91507fffffffffffffffffffffffffffffffffffffffffffffffffffffffffffffffff82141561143e5761143d6112ae565b5b600182019050919050565b7f506173746569733a204861636b6174686f6e20697320636c6f7365642e000000600082015250565b600061147f601d83610d41565b915061148a82611449565b602082019050919050565b600060208201905081810360008301526114ae81611472565b9050919050565b7f546865206861636b657220616c726561647920766f7465642e00000000000000600082015250565b60006114eb601983610d41565b91506114f6826114b5565b602082019050919050565b6000602082019050818103600083015261151a816114de565b9050919050565b7f546865206861636b657220686173207375626d69747465642e00000000000000600082015250565b6000611557601983610d41565b915061156282611521565b602082019050919050565b600060208201905081810360008301526115868161154a565b9050919050565b600061159882610cd3565b91506115a383610cd3565b9250817fffffffffffffffffffffffffffffffffffffffffffffffffffffffffffffffff04831182151516156115dc576115db6112ae565b5b828202905092915050565b7f506173746569733a20696e73756666696369656e742066756e64732e00000000600082015250565b600061161d601c83610d41565b9150611628826115e7565b602082019050919050565b6000602082019050818103600083015261164c81611610565b9050919050565b7f506173746569733a20556e6d61746368696e672066756e64732e000000000000600082015250565b6000611689601a83610d41565b915061169482611653565b602082019050919050565b600060208201905081810360008301526116b88161167c565b905091905056fea26469706673582212207740f10fe9fca3b32f2721e9a0ce25a59c749007b52550ab3af57dee046e3b5964736f6c634300080c0033a2646970667358221220b2c5d1e90823ee2d88172c0bb15b8cf79f8528cb6b75acc1ecb06d3b05f9cca064736f6c634300080c0033",
			"opcodes": "PUSH1 0x80 PUSH1 0x40 MSTORE PUSH1 0x40 MLOAD DUP1 PUSH1 0x40 ADD PUSH1 0x40 MSTORE DUP1 PUSH1 0x7 DUP2 MSTORE PUSH1 0x20 ADD PUSH32 0x5061737465697300000000000000000000000000000000000000000000000000 DUP2 MSTORE POP PUSH1 0x5 SWAP1 DUP1 MLOAD SWAP1 PUSH1 0x20 ADD SWAP1 PUSH3 0x51 SWAP3 SWAP2 SWAP1 PUSH3 0x4CB JUMP JUMPDEST POP PUSH1 0x0 PUSH20 0xDA8EA22D092307874F30A1F277D1388DCA0BA97A SWAP1 POP DUP1 PUSH1 0x2 PUSH1 0x0 PUSH2 0x100 EXP DUP2 SLOAD DUP2 PUSH20 0xFFFFFFFFFFFFFFFFFFFFFFFFFFFFFFFFFFFFFFFF MUL NOT AND SWAP1 DUP4 PUSH20 0xFFFFFFFFFFFFFFFFFFFFFFFFFFFFFFFFFFFFFFFF AND MUL OR SWAP1 SSTORE POP PUSH1 0x2 PUSH1 0x0 SWAP1 SLOAD SWAP1 PUSH2 0x100 EXP SWAP1 DIV PUSH20 0xFFFFFFFFFFFFFFFFFFFFFFFFFFFFFFFFFFFFFFFF AND PUSH20 0xFFFFFFFFFFFFFFFFFFFFFFFFFFFFFFFFFFFFFFFF AND PUSH4 0x3A9151B0 ADDRESS PUSH1 0x5 PUSH3 0x103 CHAINID PUSH3 0x351 PUSH1 0x20 SHL PUSH3 0x5EC OR PUSH1 0x20 SHR JUMP JUMPDEST PUSH1 0x40 MLOAD PUSH1 0x20 ADD PUSH3 0x116 SWAP3 SWAP2 SWAP1 PUSH3 0x7EB JUMP JUMPDEST PUSH1 0x40 MLOAD PUSH1 0x20 DUP2 DUP4 SUB SUB DUP2 MSTORE SWAP1 PUSH1 0x40 MSTORE PUSH1 0x40 MLOAD DUP4 PUSH4 0xFFFFFFFF AND PUSH1 0xE0 SHL DUP2 MSTORE PUSH1 0x4 ADD PUSH3 0x144 SWAP3 SWAP2 SWAP1 PUSH3 0x8D9 JUMP JUMPDEST PUSH1 0x20 PUSH1 0x40 MLOAD DUP1 DUP4 SUB DUP2 PUSH1 0x0 DUP8 GAS CALL ISZERO DUP1 ISZERO PUSH3 0x164 JUMPI RETURNDATASIZE PUSH1 0x0 DUP1 RETURNDATACOPY RETURNDATASIZE PUSH1 0x0 REVERT JUMPDEST POP POP POP POP PUSH1 0x40 MLOAD RETURNDATASIZE PUSH1 0x1F NOT PUSH1 0x1F DUP3 ADD AND DUP3 ADD DUP1 PUSH1 0x40 MSTORE POP DUP2 ADD SWAP1 PUSH3 0x18A SWAP2 SWAP1 PUSH3 0x94D JUMP JUMPDEST PUSH1 0x4 DUP2 SWAP1 SSTORE POP PUSH1 0x5 PUSH3 0x1A8 CHAINID PUSH3 0x351 PUSH1 0x20 SHL PUSH3 0x5EC OR PUSH1 0x20 SHR JUMP JUMPDEST PUSH3 0x1C0 PUSH1 0x4 SLOAD PUSH3 0x351 PUSH1 0x20 SHL PUSH3 0x5EC OR PUSH1 0x20 SHR JUMP JUMPDEST PUSH1 0x40 MLOAD PUSH1 0x20 ADD PUSH3 0x1D4 SWAP4 SWAP3 SWAP2 SWAP1 PUSH3 0x9A5 JUMP JUMPDEST PUSH1 0x40 MLOAD PUSH1 0x20 DUP2 DUP4 SUB SUB DUP2 MSTORE SWAP1 PUSH1 0x40 MSTORE PUSH1 0x3 SWAP1 DUP1 MLOAD SWAP1 PUSH1 0x20 ADD SWAP1 PUSH3 0x1FA SWAP3 SWAP2 SWAP1 PUSH3 0x4CB JUMP JUMPDEST POP PUSH1 0x2 PUSH1 0x0 SWAP1 SLOAD SWAP1 PUSH2 0x100 EXP SWAP1 DIV PUSH20 0xFFFFFFFFFFFFFFFFFFFFFFFFFFFFFFFFFFFFFFFF AND PUSH20 0xFFFFFFFFFFFFFFFFFFFFFFFFFFFFFFFFFFFFFFFF AND PUSH4 0x3A9151B0 ADDRESS PUSH1 0x5 PUSH3 0x252 CHAINID PUSH3 0x351 PUSH1 0x20 SHL PUSH3 0x5EC OR PUSH1 0x20 SHR JUMP JUMPDEST PUSH1 0x40 MLOAD PUSH1 0x20 ADD PUSH3 0x265 SWAP3 SWAP2 SWAP1 PUSH3 0xAC0 JUMP JUMPDEST PUSH1 0x40 MLOAD PUSH1 0x20 DUP2 DUP4 SUB SUB DUP2 MSTORE SWAP1 PUSH1 0x40 MSTORE PUSH1 0x40 MLOAD DUP4 PUSH4 0xFFFFFFFF AND PUSH1 0xE0 SHL DUP2 MSTORE PUSH1 0x4 ADD PUSH3 0x293 SWAP3 SWAP2 SWAP1 PUSH3 0x8D9 JUMP JUMPDEST PUSH1 0x20 PUSH1 0x40 MLOAD DUP1 DUP4 SUB DUP2 PUSH1 0x0 DUP8 GAS CALL ISZERO DUP1 ISZERO PUSH3 0x2B3 JUMPI RETURNDATASIZE PUSH1 0x0 DUP1 RETURNDATACOPY RETURNDATASIZE PUSH1 0x0 REVERT JUMPDEST POP POP POP POP PUSH1 0x40 MLOAD RETURNDATASIZE PUSH1 0x1F NOT PUSH1 0x1F DUP3 ADD AND DUP3 ADD DUP1 PUSH1 0x40 MSTORE POP DUP2 ADD SWAP1 PUSH3 0x2D9 SWAP2 SWAP1 PUSH3 0x94D JUMP JUMPDEST PUSH1 0x7 DUP2 SWAP1 SSTORE POP PUSH1 0x5 PUSH3 0x2F7 CHAINID PUSH3 0x351 PUSH1 0x20 SHL PUSH3 0x5EC OR PUSH1 0x20 SHR JUMP JUMPDEST PUSH3 0x30F PUSH1 0x7 SLOAD PUSH3 0x351 PUSH1 0x20 SHL PUSH3 0x5EC OR PUSH1 0x20 SHR JUMP JUMPDEST PUSH1 0x40 MLOAD PUSH1 0x20 ADD PUSH3 0x323 SWAP4 SWAP3 SWAP2 SWAP1 PUSH3 0x9A5 JUMP JUMPDEST PUSH1 0x40 MLOAD PUSH1 0x20 DUP2 DUP4 SUB SUB DUP2 MSTORE SWAP1 PUSH1 0x40 MSTORE PUSH1 0x6 SWAP1 DUP1 MLOAD SWAP1 PUSH1 0x20 ADD SWAP1 PUSH3 0x349 SWAP3 SWAP2 SWAP1 PUSH3 0x4CB JUMP JUMPDEST POP POP PUSH3 0xD18 JUMP JUMPDEST PUSH1 0x60 PUSH1 0x0 DUP3 EQ ISZERO PUSH3 0x39B JUMPI PUSH1 0x40 MLOAD DUP1 PUSH1 0x40 ADD PUSH1 0x40 MSTORE DUP1 PUSH1 0x1 DUP2 MSTORE PUSH1 0x20 ADD PUSH32 0x3000000000000000000000000000000000000000000000000000000000000000 DUP2 MSTORE POP SWAP1 POP PUSH3 0x4C6 JUMP JUMPDEST PUSH1 0x0 DUP3 SWAP1 POP PUSH1 0x0 JUMPDEST PUSH1 0x0 DUP3 EQ PUSH3 0x3D3 JUMPI DUP1 DUP1 PUSH3 0x3B9 SWAP1 PUSH3 0xB35 JUMP JUMPDEST SWAP2 POP POP PUSH1 0xA DUP3 PUSH3 0x3CB SWAP2 SWAP1 PUSH3 0xBB2 JUMP JUMPDEST SWAP2 POP PUSH3 0x3A3 JUMP JUMPDEST PUSH1 0x0 DUP2 PUSH8 0xFFFFFFFFFFFFFFFF DUP2 GT ISZERO PUSH3 0x3F2 JUMPI PUSH3 0x3F1 PUSH3 0xBEA JUMP JUMPDEST JUMPDEST PUSH1 0x40 MLOAD SWAP1 DUP1 DUP3 MSTORE DUP1 PUSH1 0x1F ADD PUSH1 0x1F NOT AND PUSH1 0x20 ADD DUP3 ADD PUSH1 0x40 MSTORE DUP1 ISZERO PUSH3 0x425 JUMPI DUP2 PUSH1 0x20 ADD PUSH1 0x1 DUP3 MUL DUP1 CALLDATASIZE DUP4 CALLDATACOPY DUP1 DUP3 ADD SWAP2 POP POP SWAP1 POP JUMPDEST POP SWAP1 POP JUMPDEST PUSH1 0x0 DUP6 EQ PUSH3 0x4BF JUMPI PUSH1 0x1 DUP3 PUSH3 0x441 SWAP2 SWAP1 PUSH3 0xC19 JUMP JUMPDEST SWAP2 POP PUSH1 0xA DUP6 PUSH3 0x452 SWAP2 SWAP1 PUSH3 0xC54 JUMP JUMPDEST PUSH1 0x30 PUSH3 0x460 SWAP2 SWAP1 PUSH3 0xC8C JUMP JUMPDEST PUSH1 0xF8 SHL DUP2 DUP4 DUP2 MLOAD DUP2 LT PUSH3 0x479 JUMPI PUSH3 0x478 PUSH3 0xCE9 JUMP JUMPDEST JUMPDEST PUSH1 0x20 ADD ADD SWAP1 PUSH31 0xFFFFFFFFFFFFFFFFFFFFFFFFFFFFFFFFFFFFFFFFFFFFFFFFFFFFFFFFFFFFFF NOT AND SWAP1 DUP2 PUSH1 0x0 BYTE SWAP1 MSTORE8 POP PUSH1 0xA DUP6 PUSH3 0x4B7 SWAP2 SWAP1 PUSH3 0xBB2 JUMP JUMPDEST SWAP5 POP PUSH3 0x429 JUMP JUMPDEST DUP1 SWAP4 POP POP POP POP JUMPDEST SWAP2 SWAP1 POP JUMP JUMPDEST DUP3 DUP1 SLOAD PUSH3 0x4D9 SWAP1 PUSH3 0x5D0 JUMP JUMPDEST SWAP1 PUSH1 0x0 MSTORE PUSH1 0x20 PUSH1 0x0 KECCAK256 SWAP1 PUSH1 0x1F ADD PUSH1 0x20 SWAP1 DIV DUP2 ADD SWAP3 DUP3 PUSH3 0x4FD JUMPI PUSH1 0x0 DUP6 SSTORE PUSH3 0x549 JUMP JUMPDEST DUP3 PUSH1 0x1F LT PUSH3 0x518 JUMPI DUP1 MLOAD PUSH1 0xFF NOT AND DUP4 DUP1 ADD OR DUP6 SSTORE PUSH3 0x549 JUMP JUMPDEST DUP3 DUP1 ADD PUSH1 0x1 ADD DUP6 SSTORE DUP3 ISZERO PUSH3 0x549 JUMPI SWAP2 DUP3 ADD JUMPDEST DUP3 DUP2 GT ISZERO PUSH3 0x548 JUMPI DUP3 MLOAD DUP3 SSTORE SWAP2 PUSH1 0x20 ADD SWAP2 SWAP1 PUSH1 0x1 ADD SWAP1 PUSH3 0x52B JUMP JUMPDEST JUMPDEST POP SWAP1 POP PUSH3 0x558 SWAP2 SWAP1 PUSH3 0x55C JUMP JUMPDEST POP SWAP1 JUMP JUMPDEST JUMPDEST DUP1 DUP3 GT ISZERO PUSH3 0x577 JUMPI PUSH1 0x0 DUP2 PUSH1 0x0 SWAP1 SSTORE POP PUSH1 0x1 ADD PUSH3 0x55D JUMP JUMPDEST POP SWAP1 JUMP JUMPDEST PUSH32 0x435245415445205441424C450000000000000000000000000000000000000000 DUP2 MSTORE POP JUMP JUMPDEST PUSH32 0x4E487B7100000000000000000000000000000000000000000000000000000000 PUSH1 0x0 MSTORE PUSH1 0x22 PUSH1 0x4 MSTORE PUSH1 0x24 PUSH1 0x0 REVERT JUMPDEST PUSH1 0x0 PUSH1 0x2 DUP3 DIV SWAP1 POP PUSH1 0x1 DUP3 AND DUP1 PUSH3 0x5E9 JUMPI PUSH1 0x7F DUP3 AND SWAP2 POP JUMPDEST PUSH1 0x20 DUP3 LT DUP2 EQ ISZERO PUSH3 0x600 JUMPI PUSH3 0x5FF PUSH3 0x5A1 JUMP JUMPDEST JUMPDEST POP SWAP2 SWAP1 POP JUMP JUMPDEST PUSH1 0x0 DUP2 SWAP1 POP SWAP3 SWAP2 POP POP JUMP JUMPDEST PUSH1 0x0 DUP2 SWAP1 POP DUP2 PUSH1 0x0 MSTORE PUSH1 0x20 PUSH1 0x0 KECCAK256 SWAP1 POP SWAP2 SWAP1 POP JUMP JUMPDEST PUSH1 0x0 DUP2 SLOAD PUSH3 0x635 DUP2 PUSH3 0x5D0 JUMP JUMPDEST PUSH3 0x641 DUP2 DUP7 PUSH3 0x606 JUMP JUMPDEST SWAP5 POP PUSH1 0x1 DUP3 AND PUSH1 0x0 DUP2 EQ PUSH3 0x65F JUMPI PUSH1 0x1 DUP2 EQ PUSH3 0x671 JUMPI PUSH3 0x6A8 JUMP JUMPDEST PUSH1 0xFF NOT DUP4 AND DUP7 MSTORE DUP2 DUP7 ADD SWAP4 POP PUSH3 0x6A8 JUMP JUMPDEST PUSH3 0x67C DUP6 PUSH3 0x611 JUMP JUMPDEST PUSH1 0x0 JUMPDEST DUP4 DUP2 LT ISZERO PUSH3 0x6A0 JUMPI DUP2 SLOAD DUP2 DUP10 ADD MSTORE PUSH1 0x1 DUP3 ADD SWAP2 POP PUSH1 0x20 DUP2 ADD SWAP1 POP PUSH3 0x67F JUMP JUMPDEST DUP4 DUP9 ADD SWAP6 POP POP POP JUMPDEST POP POP POP SWAP3 SWAP2 POP POP JUMP JUMPDEST PUSH1 0x0 DUP2 MLOAD SWAP1 POP SWAP2 SWAP1 POP JUMP JUMPDEST PUSH1 0x0 JUMPDEST DUP4 DUP2 LT ISZERO PUSH3 0x6DC JUMPI DUP1 DUP3 ADD MLOAD DUP2 DUP5 ADD MSTORE PUSH1 0x20 DUP2 ADD SWAP1 POP PUSH3 0x6BF JUMP JUMPDEST DUP4 DUP2 GT ISZERO PUSH3 0x6EC JUMPI PUSH1 0x0 DUP5 DUP5 ADD MSTORE JUMPDEST POP POP POP POP JUMP JUMPDEST PUSH1 0x0 PUSH3 0x6FF DUP3 PUSH3 0x6B1 JUMP JUMPDEST PUSH3 0x70B DUP2 DUP6 PUSH3 0x606 JUMP JUMPDEST SWAP4 POP PUSH3 0x71D DUP2 DUP6 PUSH1 0x20 DUP7 ADD PUSH3 0x6BC JUMP JUMPDEST DUP1 DUP5 ADD SWAP2 POP POP SWAP3 SWAP2 POP POP JUMP JUMPDEST PUSH32 0x2028696420696E742C206861636B6174686F6E4164642074696E79746578742C PUSH1 0x0 DUP3 ADD MSTORE PUSH32 0x206861636B6174686F6E5F6E616D652074696E79746578742C20646573637269 PUSH1 0x20 DUP3 ADD MSTORE PUSH32 0x7074696F6E20746578742C206F7267616E697A65722074696E79746578742C20 PUSH1 0x40 DUP3 ADD MSTORE PUSH32 0x746F74616C5F7072697A6520696E742C20646174652074696E7974657874293B PUSH1 0x60 DUP3 ADD MSTORE POP JUMP JUMPDEST PUSH1 0x0 PUSH3 0x7D3 PUSH1 0x80 DUP4 PUSH3 0x606 JUMP JUMPDEST SWAP2 POP PUSH3 0x7E0 DUP3 PUSH3 0x729 JUMP JUMPDEST PUSH1 0x80 DUP3 ADD SWAP1 POP SWAP2 SWAP1 POP JUMP JUMPDEST PUSH1 0x0 PUSH3 0x7F8 DUP3 PUSH3 0x57B JUMP JUMPDEST PUSH1 0xC DUP3 ADD SWAP2 POP PUSH3 0x80A DUP3 DUP6 PUSH3 0x626 JUMP JUMPDEST SWAP2 POP PUSH3 0x818 DUP3 DUP5 PUSH3 0x6F2 JUMP JUMPDEST SWAP2 POP PUSH3 0x825 DUP3 PUSH3 0x7C4 JUMP JUMPDEST SWAP2 POP DUP2 SWAP1 POP SWAP4 SWAP3 POP POP POP JUMP JUMPDEST PUSH1 0x0 PUSH20 0xFFFFFFFFFFFFFFFFFFFFFFFFFFFFFFFFFFFFFFFF DUP3 AND SWAP1 POP SWAP2 SWAP1 POP JUMP JUMPDEST PUSH1 0x0 PUSH3 0x85E DUP3 PUSH3 0x831 JUMP JUMPDEST SWAP1 POP SWAP2 SWAP1 POP JUMP JUMPDEST PUSH3 0x870 DUP2 PUSH3 0x851 JUMP JUMPDEST DUP3 MSTORE POP POP JUMP JUMPDEST PUSH1 0x0 DUP3 DUP3 MSTORE PUSH1 0x20 DUP3 ADD SWAP1 POP SWAP3 SWAP2 POP POP JUMP JUMPDEST PUSH1 0x0 PUSH1 0x1F NOT PUSH1 0x1F DUP4 ADD AND SWAP1 POP SWAP2 SWAP1 POP JUMP JUMPDEST PUSH1 0x0 PUSH3 0x8A5 DUP3 PUSH3 0x6B1 JUMP JUMPDEST PUSH3 0x8B1 DUP2 DUP6 PUSH3 0x876 JUMP JUMPDEST SWAP4 POP PUSH3 0x8C3 DUP2 DUP6 PUSH1 0x20 DUP7 ADD PUSH3 0x6BC JUMP JUMPDEST PUSH3 0x8CE DUP2 PUSH3 0x887 JUMP JUMPDEST DUP5 ADD SWAP2 POP POP SWAP3 SWAP2 POP POP JUMP JUMPDEST PUSH1 0x0 PUSH1 0x40 DUP3 ADD SWAP1 POP PUSH3 0x8F0 PUSH1 0x0 DUP4 ADD DUP6 PUSH3 0x865 JUMP JUMPDEST DUP2 DUP2 SUB PUSH1 0x20 DUP4 ADD MSTORE PUSH3 0x904 DUP2 DUP5 PUSH3 0x898 JUMP JUMPDEST SWAP1 POP SWAP4 SWAP3 POP POP POP JUMP JUMPDEST PUSH1 0x0 DUP1 REVERT JUMPDEST PUSH1 0x0 DUP2 SWAP1 POP SWAP2 SWAP1 POP JUMP JUMPDEST PUSH3 0x927 DUP2 PUSH3 0x912 JUMP JUMPDEST DUP2 EQ PUSH3 0x933 JUMPI PUSH1 0x0 DUP1 REVERT JUMPDEST POP JUMP JUMPDEST PUSH1 0x0 DUP2 MLOAD SWAP1 POP PUSH3 0x947 DUP2 PUSH3 0x91C JUMP JUMPDEST SWAP3 SWAP2 POP POP JUMP JUMPDEST PUSH1 0x0 PUSH1 0x20 DUP3 DUP5 SUB SLT ISZERO PUSH3 0x966 JUMPI PUSH3 0x965 PUSH3 0x90D JUMP JUMPDEST JUMPDEST PUSH1 0x0 PUSH3 0x976 DUP5 DUP3 DUP6 ADD PUSH3 0x936 JUMP JUMPDEST SWAP2 POP POP SWAP3 SWAP2 POP POP JUMP JUMPDEST PUSH32 0x5F00000000000000000000000000000000000000000000000000000000000000 DUP2 MSTORE POP JUMP JUMPDEST PUSH1 0x0 PUSH3 0x9B3 DUP3 DUP7 PUSH3 0x626 JUMP JUMPDEST SWAP2 POP PUSH3 0x9C0 DUP3 PUSH3 0x97F JUMP JUMPDEST PUSH1 0x1 DUP3 ADD SWAP2 POP PUSH3 0x9D2 DUP3 DUP6 PUSH3 0x6F2 JUMP JUMPDEST SWAP2 POP PUSH3 0x9DF DUP3 PUSH3 0x97F JUMP JUMPDEST PUSH1 0x1 DUP3 ADD SWAP2 POP PUSH3 0x9F1 DUP3 DUP5 PUSH3 0x6F2 JUMP JUMPDEST SWAP2 POP DUP2 SWAP1 POP SWAP5 SWAP4 POP POP POP POP JUMP JUMPDEST PUSH32 0x20286861636B6174686F6E4164642074696E79746578742C2070726F6A656374 PUSH1 0x0 DUP3 ADD MSTORE PUSH32 0x4F776E65722074696E79746578742C2070726F6A6563744E616D652074657874 PUSH1 0x20 DUP3 ADD MSTORE PUSH32 0x2C206465736372697074696F6E20746578742C2070726F6A6563744C696E6B20 PUSH1 0x40 DUP3 ADD MSTORE PUSH32 0x74696E7974657874293B00000000000000000000000000000000000000000000 PUSH1 0x60 DUP3 ADD MSTORE POP JUMP JUMPDEST PUSH1 0x0 PUSH3 0xAA8 PUSH1 0x6A DUP4 PUSH3 0x606 JUMP JUMPDEST SWAP2 POP PUSH3 0xAB5 DUP3 PUSH3 0x9FE JUMP JUMPDEST PUSH1 0x6A DUP3 ADD SWAP1 POP SWAP2 SWAP1 POP JUMP JUMPDEST PUSH1 0x0 PUSH3 0xACD DUP3 PUSH3 0x57B JUMP JUMPDEST PUSH1 0xC DUP3 ADD SWAP2 POP PUSH3 0xADF DUP3 DUP6 PUSH3 0x626 JUMP JUMPDEST SWAP2 POP PUSH3 0xAED DUP3 DUP5 PUSH3 0x6F2 JUMP JUMPDEST SWAP2 POP PUSH3 0xAFA DUP3 PUSH3 0xA99 JUMP JUMPDEST SWAP2 POP DUP2 SWAP1 POP SWAP4 SWAP3 POP POP POP JUMP JUMPDEST PUSH32 0x4E487B7100000000000000000000000000000000000000000000000000000000 PUSH1 0x0 MSTORE PUSH1 0x11 PUSH1 0x4 MSTORE PUSH1 0x24 PUSH1 0x0 REVERT JUMPDEST PUSH1 0x0 PUSH3 0xB42 DUP3 PUSH3 0x912 JUMP JUMPDEST SWAP2 POP PUSH32 0xFFFFFFFFFFFFFFFFFFFFFFFFFFFFFFFFFFFFFFFFFFFFFFFFFFFFFFFFFFFFFFFF DUP3 EQ ISZERO PUSH3 0xB78 JUMPI PUSH3 0xB77 PUSH3 0xB06 JUMP JUMPDEST JUMPDEST PUSH1 0x1 DUP3 ADD SWAP1 POP SWAP2 SWAP1 POP JUMP JUMPDEST PUSH32 0x4E487B7100000000000000000000000000000000000000000000000000000000 PUSH1 0x0 MSTORE PUSH1 0x12 PUSH1 0x4 MSTORE PUSH1 0x24 PUSH1 0x0 REVERT JUMPDEST PUSH1 0x0 PUSH3 0xBBF DUP3 PUSH3 0x912 JUMP JUMPDEST SWAP2 POP PUSH3 0xBCC DUP4 PUSH3 0x912 JUMP JUMPDEST SWAP3 POP DUP3 PUSH3 0xBDF JUMPI PUSH3 0xBDE PUSH3 0xB83 JUMP JUMPDEST JUMPDEST DUP3 DUP3 DIV SWAP1 POP SWAP3 SWAP2 POP POP JUMP JUMPDEST PUSH32 0x4E487B7100000000000000000000000000000000000000000000000000000000 PUSH1 0x0 MSTORE PUSH1 0x41 PUSH1 0x4 MSTORE PUSH1 0x24 PUSH1 0x0 REVERT JUMPDEST PUSH1 0x0 PUSH3 0xC26 DUP3 PUSH3 0x912 JUMP JUMPDEST SWAP2 POP PUSH3 0xC33 DUP4 PUSH3 0x912 JUMP JUMPDEST SWAP3 POP DUP3 DUP3 LT ISZERO PUSH3 0xC49 JUMPI PUSH3 0xC48 PUSH3 0xB06 JUMP JUMPDEST JUMPDEST DUP3 DUP3 SUB SWAP1 POP SWAP3 SWAP2 POP POP JUMP JUMPDEST PUSH1 0x0 PUSH3 0xC61 DUP3 PUSH3 0x912 JUMP JUMPDEST SWAP2 POP PUSH3 0xC6E DUP4 PUSH3 0x912 JUMP JUMPDEST SWAP3 POP DUP3 PUSH3 0xC81 JUMPI PUSH3 0xC80 PUSH3 0xB83 JUMP JUMPDEST JUMPDEST DUP3 DUP3 MOD SWAP1 POP SWAP3 SWAP2 POP POP JUMP JUMPDEST PUSH1 0x0 PUSH3 0xC99 DUP3 PUSH3 0x912 JUMP JUMPDEST SWAP2 POP PUSH3 0xCA6 DUP4 PUSH3 0x912 JUMP JUMPDEST SWAP3 POP DUP3 PUSH32 0xFFFFFFFFFFFFFFFFFFFFFFFFFFFFFFFFFFFFFFFFFFFFFFFFFFFFFFFFFFFFFFFF SUB DUP3 GT ISZERO PUSH3 0xCDE JUMPI PUSH3 0xCDD PUSH3 0xB06 JUMP JUMPDEST JUMPDEST DUP3 DUP3 ADD SWAP1 POP SWAP3 SWAP2 POP POP JUMP JUMPDEST PUSH32 0x4E487B7100000000000000000000000000000000000000000000000000000000 PUSH1 0x0 MSTORE PUSH1 0x32 PUSH1 0x4 MSTORE PUSH1 0x24 PUSH1 0x0 REVERT JUMPDEST PUSH2 0x3341 DUP1 PUSH3 0xD28 PUSH1 0x0 CODECOPY PUSH1 0x0 RETURN INVALID PUSH1 0x80 PUSH1 0x40 MSTORE PUSH1 0x4 CALLDATASIZE LT PUSH3 0x55 JUMPI PUSH1 0x0 CALLDATALOAD PUSH1 0xE0 SHR DUP1 PUSH4 0x26337075 EQ PUSH3 0x5F JUMPI DUP1 PUSH4 0x4387FEAB EQ PUSH3 0x8F JUMPI DUP1 PUSH4 0x6A65B25D EQ PUSH3 0xD3 JUMPI DUP1 PUSH4 0xC1077194 EQ PUSH3 0x117 JUMPI DUP1 PUSH4 0xE8BD3A89 EQ PUSH3 0x15B JUMPI PUSH3 0x5D JUMP JUMPDEST CALLDATASIZE PUSH3 0x5D JUMPI STOP JUMPDEST STOP JUMPDEST CALLVALUE DUP1 ISZERO PUSH3 0x6C JUMPI PUSH1 0x0 DUP1 REVERT JUMPDEST POP PUSH3 0x77 PUSH3 0x192 JUMP JUMPDEST PUSH1 0x40 MLOAD PUSH3 0x86 SWAP2 SWAP1 PUSH3 0x9EA JUMP JUMPDEST PUSH1 0x40 MLOAD DUP1 SWAP2 SUB SWAP1 RETURN JUMPDEST CALLVALUE DUP1 ISZERO PUSH3 0x9C JUMPI PUSH1 0x0 DUP1 REVERT JUMPDEST POP PUSH3 0xBB PUSH1 0x4 DUP1 CALLDATASIZE SUB DUP2 ADD SWAP1 PUSH3 0xB5 SWAP2 SWAP1 PUSH3 0xA4C JUMP JUMPDEST PUSH3 0x19E JUMP JUMPDEST PUSH1 0x40 MLOAD PUSH3 0xCA SWAP2 SWAP1 PUSH3 0xAC3 JUMP JUMPDEST PUSH1 0x40 MLOAD DUP1 SWAP2 SUB SWAP1 RETURN JUMPDEST CALLVALUE DUP1 ISZERO PUSH3 0xE0 JUMPI PUSH1 0x0 DUP1 REVERT JUMPDEST POP PUSH3 0xFF PUSH1 0x4 DUP1 CALLDATASIZE SUB DUP2 ADD SWAP1 PUSH3 0xF9 SWAP2 SWAP1 PUSH3 0xC42 JUMP JUMPDEST PUSH3 0x1E8 JUMP JUMPDEST PUSH1 0x40 MLOAD PUSH3 0x10E SWAP2 SWAP1 PUSH3 0xD82 JUMP JUMPDEST PUSH1 0x40 MLOAD DUP1 SWAP2 SUB SWAP1 RETURN JUMPDEST CALLVALUE DUP1 ISZERO PUSH3 0x124 JUMPI PUSH1 0x0 DUP1 REVERT JUMPDEST POP PUSH3 0x143 PUSH1 0x4 DUP1 CALLDATASIZE SUB DUP2 ADD SWAP1 PUSH3 0x13D SWAP2 SWAP1 PUSH3 0xA4C JUMP JUMPDEST PUSH3 0x2BA JUMP JUMPDEST PUSH1 0x40 MLOAD PUSH3 0x152 SWAP2 SWAP1 PUSH3 0xAC3 JUMP JUMPDEST PUSH1 0x40 MLOAD DUP1 SWAP2 SUB SWAP1 RETURN JUMPDEST PUSH3 0x179 PUSH1 0x4 DUP1 CALLDATASIZE SUB DUP2 ADD SWAP1 PUSH3 0x173 SWAP2 SWAP1 PUSH3 0xD9F JUMP JUMPDEST PUSH3 0x2FA JUMP JUMPDEST PUSH1 0x40 MLOAD PUSH3 0x189 SWAP3 SWAP2 SWAP1 PUSH3 0xECE JUMP JUMPDEST PUSH1 0x40 MLOAD DUP1 SWAP2 SUB SWAP1 RETURN JUMPDEST PUSH1 0x0 DUP1 DUP1 SLOAD SWAP1 POP SWAP1 POP SWAP1 JUMP JUMPDEST PUSH1 0x0 DUP1 DUP3 DUP2 SLOAD DUP2 LT PUSH3 0x1B6 JUMPI PUSH3 0x1B5 PUSH3 0xEFB JUMP JUMPDEST JUMPDEST SWAP1 PUSH1 0x0 MSTORE PUSH1 0x20 PUSH1 0x0 KECCAK256 ADD PUSH1 0x0 SWAP1 SLOAD SWAP1 PUSH2 0x100 EXP SWAP1 DIV PUSH20 0xFFFFFFFFFFFFFFFFFFFFFFFFFFFFFFFFFFFFFFFF AND SWAP1 POP SWAP2 SWAP1 POP JUMP JUMPDEST PUSH1 0x0 PUSH1 0x2 PUSH1 0x0 SWAP1 SLOAD SWAP1 PUSH2 0x100 EXP SWAP1 DIV PUSH20 0xFFFFFFFFFFFFFFFFFFFFFFFFFFFFFFFFFFFFFFFF AND PUSH20 0xFFFFFFFFFFFFFFFFFFFFFFFFFFFFFFFFFFFFFFFF AND PUSH4 0xEAF5D04E ADDRESS PUSH1 0x7 SLOAD PUSH1 0x6 DUP11 DUP11 DUP11 DUP11 DUP11 PUSH1 0x40 MLOAD PUSH1 0x20 ADD PUSH3 0x24A SWAP7 SWAP6 SWAP5 SWAP4 SWAP3 SWAP2 SWAP1 PUSH3 0x11C0 JUMP JUMPDEST PUSH1 0x40 MLOAD PUSH1 0x20 DUP2 DUP4 SUB SUB DUP2 MSTORE SWAP1 PUSH1 0x40 MSTORE PUSH1 0x40 MLOAD DUP5 PUSH4 0xFFFFFFFF AND PUSH1 0xE0 SHL DUP2 MSTORE PUSH1 0x4 ADD PUSH3 0x279 SWAP4 SWAP3 SWAP2 SWAP1 PUSH3 0x12E9 JUMP JUMPDEST PUSH1 0x0 PUSH1 0x40 MLOAD DUP1 DUP4 SUB DUP2 PUSH1 0x0 DUP8 DUP1 EXTCODESIZE ISZERO DUP1 ISZERO PUSH3 0x294 JUMPI PUSH1 0x0 DUP1 REVERT JUMPDEST POP GAS CALL ISZERO DUP1 ISZERO PUSH3 0x2A9 JUMPI RETURNDATASIZE PUSH1 0x0 DUP1 RETURNDATACOPY RETURNDATASIZE PUSH1 0x0 REVERT JUMPDEST POP POP POP POP PUSH1 0x1 SWAP1 POP SWAP6 SWAP5 POP POP POP POP POP JUMP JUMPDEST PUSH1 0x0 DUP2 DUP2 SLOAD DUP2 LT PUSH3 0x2CB JUMPI PUSH1 0x0 DUP1 REVERT JUMPDEST SWAP1 PUSH1 0x0 MSTORE PUSH1 0x20 PUSH1 0x0 KECCAK256 ADD PUSH1 0x0 SWAP2 POP SLOAD SWAP1 PUSH2 0x100 EXP SWAP1 DIV PUSH20 0xFFFFFFFFFFFFFFFFFFFFFFFFFFFFFFFFFFFFFFFF AND DUP2 JUMP JUMPDEST PUSH1 0x0 DUP1 PUSH1 0x0 DUP1 SLOAD SWAP1 POP PUSH1 0x1 DUP2 SWAP1 SSTORE POP DUP9 CALLER PUSH20 0xFFFFFFFFFFFFFFFFFFFFFFFFFFFFFFFFFFFFFFFF AND BALANCE LT ISZERO PUSH3 0x366 JUMPI PUSH1 0x40 MLOAD PUSH32 0x8C379A000000000000000000000000000000000000000000000000000000000 DUP2 MSTORE PUSH1 0x4 ADD PUSH3 0x35D SWAP1 PUSH3 0x13A3 JUMP JUMPDEST PUSH1 0x40 MLOAD DUP1 SWAP2 SUB SWAP1 REVERT JUMPDEST DUP9 CALLVALUE EQ PUSH3 0x3AB JUMPI PUSH1 0x40 MLOAD PUSH32 0x8C379A000000000000000000000000000000000000000000000000000000000 DUP2 MSTORE PUSH1 0x4 ADD PUSH3 0x3A2 SWAP1 PUSH3 0x143B JUMP JUMPDEST PUSH1 0x40 MLOAD DUP1 SWAP2 SUB SWAP1 REVERT JUMPDEST PUSH1 0x0 PUSH1 0x1 SLOAD DUP10 DUP12 CALLER PUSH1 0x40 MLOAD PUSH3 0x3C1 SWAP1 PUSH3 0x9C1 JUMP JUMPDEST PUSH3 0x3D0 SWAP5 SWAP4 SWAP3 SWAP2 SWAP1 PUSH3 0x145D JUMP JUMPDEST PUSH1 0x40 MLOAD DUP1 SWAP2 SUB SWAP1 PUSH1 0x0 CREATE DUP1 ISZERO DUP1 ISZERO PUSH3 0x3ED JUMPI RETURNDATASIZE PUSH1 0x0 DUP1 RETURNDATACOPY RETURNDATASIZE PUSH1 0x0 REVERT JUMPDEST POP SWAP1 POP DUP1 PUSH20 0xFFFFFFFFFFFFFFFFFFFFFFFFFFFFFFFFFFFFFFFF AND PUSH2 0x8FC DUP12 SWAP1 DUP2 ISZERO MUL SWAP1 PUSH1 0x40 MLOAD PUSH1 0x0 PUSH1 0x40 MLOAD DUP1 DUP4 SUB DUP2 DUP6 DUP9 DUP9 CALL SWAP4 POP POP POP POP ISZERO DUP1 ISZERO PUSH3 0x437 JUMPI RETURNDATASIZE PUSH1 0x0 DUP1 RETURNDATACOPY RETURNDATASIZE PUSH1 0x0 REVERT JUMPDEST POP PUSH1 0x0 DUP2 SWAP1 DUP1 PUSH1 0x1 DUP2 SLOAD ADD DUP1 DUP3 SSTORE DUP1 SWAP2 POP POP PUSH1 0x1 SWAP1 SUB SWAP1 PUSH1 0x0 MSTORE PUSH1 0x20 PUSH1 0x0 KECCAK256 ADD PUSH1 0x0 SWAP1 SWAP2 SWAP1 SWAP2 SWAP1 SWAP2 PUSH2 0x100 EXP DUP2 SLOAD DUP2 PUSH20 0xFFFFFFFFFFFFFFFFFFFFFFFFFFFFFFFFFFFFFFFF MUL NOT AND SWAP1 DUP4 PUSH20 0xFFFFFFFFFFFFFFFFFFFFFFFFFFFFFFFFFFFFFFFF AND MUL OR SWAP1 SSTORE POP PUSH1 0x2 PUSH1 0x0 SWAP1 SLOAD SWAP1 PUSH2 0x100 EXP SWAP1 DIV PUSH20 0xFFFFFFFFFFFFFFFFFFFFFFFFFFFFFFFFFFFFFFFF AND PUSH20 0xFFFFFFFFFFFFFFFFFFFFFFFFFFFFFFFFFFFFFFFF AND PUSH4 0xEAF5D04E ADDRESS PUSH1 0x4 SLOAD PUSH1 0x3 PUSH3 0x4EC PUSH1 0x1 SLOAD PUSH3 0x5EC JUMP JUMPDEST PUSH3 0x50F DUP8 PUSH20 0xFFFFFFFFFFFFFFFFFFFFFFFFFFFFFFFFFFFFFFFF AND PUSH1 0x20 PUSH3 0x766 JUMP JUMPDEST DUP15 DUP15 DUP15 PUSH3 0x51D DUP16 PUSH3 0x5EC JUMP JUMPDEST DUP15 PUSH1 0x40 MLOAD PUSH1 0x20 ADD PUSH3 0x537 SWAP9 SWAP8 SWAP7 SWAP6 SWAP5 SWAP4 SWAP3 SWAP2 SWAP1 PUSH3 0x1546 JUMP JUMPDEST PUSH1 0x40 MLOAD PUSH1 0x20 DUP2 DUP4 SUB SUB DUP2 MSTORE SWAP1 PUSH1 0x40 MSTORE PUSH1 0x40 MLOAD DUP5 PUSH4 0xFFFFFFFF AND PUSH1 0xE0 SHL DUP2 MSTORE PUSH1 0x4 ADD PUSH3 0x566 SWAP4 SWAP3 SWAP2 SWAP1 PUSH3 0x12E9 JUMP JUMPDEST PUSH1 0x0 PUSH1 0x40 MLOAD DUP1 DUP4 SUB DUP2 PUSH1 0x0 DUP8 DUP1 EXTCODESIZE ISZERO DUP1 ISZERO PUSH3 0x581 JUMPI PUSH1 0x0 DUP1 REVERT JUMPDEST POP GAS CALL ISZERO DUP1 ISZERO PUSH3 0x596 JUMPI RETURNDATASIZE PUSH1 0x0 DUP1 RETURNDATACOPY RETURNDATASIZE PUSH1 0x0 REVERT JUMPDEST POP POP POP POP PUSH32 0xCF817FC3589AF37A2E4881422B7CF7A8C17525C79B822EA82AE40227B0E98902 PUSH1 0x1 SLOAD DUP3 PUSH1 0x40 MLOAD PUSH3 0x5CF SWAP3 SWAP2 SWAP1 PUSH3 0x165D JUMP JUMPDEST PUSH1 0x40 MLOAD DUP1 SWAP2 SUB SWAP1 LOG1 DUP1 PUSH1 0x1 SLOAD SWAP3 POP SWAP3 POP POP SWAP8 POP SWAP8 SWAP6 POP POP POP POP POP POP JUMP JUMPDEST PUSH1 0x60 PUSH1 0x0 DUP3 EQ ISZERO PUSH3 0x636 JUMPI PUSH1 0x40 MLOAD DUP1 PUSH1 0x40 ADD PUSH1 0x40 MSTORE DUP1 PUSH1 0x1 DUP2 MSTORE PUSH1 0x20 ADD PUSH32 0x3000000000000000000000000000000000000000000000000000000000000000 DUP2 MSTORE POP SWAP1 POP PUSH3 0x761 JUMP JUMPDEST PUSH1 0x0 DUP3 SWAP1 POP PUSH1 0x0 JUMPDEST PUSH1 0x0 DUP3 EQ PUSH3 0x66E JUMPI DUP1 DUP1 PUSH3 0x654 SWAP1 PUSH3 0x16B9 JUMP JUMPDEST SWAP2 POP POP PUSH1 0xA DUP3 PUSH3 0x666 SWAP2 SWAP1 PUSH3 0x1736 JUMP JUMPDEST SWAP2 POP PUSH3 0x63E JUMP JUMPDEST PUSH1 0x0 DUP2 PUSH8 0xFFFFFFFFFFFFFFFF DUP2 GT ISZERO PUSH3 0x68D JUMPI PUSH3 0x68C PUSH3 0xAFB JUMP JUMPDEST JUMPDEST PUSH1 0x40 MLOAD SWAP1 DUP1 DUP3 MSTORE DUP1 PUSH1 0x1F ADD PUSH1 0x1F NOT AND PUSH1 0x20 ADD DUP3 ADD PUSH1 0x40 MSTORE DUP1 ISZERO PUSH3 0x6C0 JUMPI DUP2 PUSH1 0x20 ADD PUSH1 0x1 DUP3 MUL DUP1 CALLDATASIZE DUP4 CALLDATACOPY DUP1 DUP3 ADD SWAP2 POP POP SWAP1 POP JUMPDEST POP SWAP1 POP JUMPDEST PUSH1 0x0 DUP6 EQ PUSH3 0x75A JUMPI PUSH1 0x1 DUP3 PUSH3 0x6DC SWAP2 SWAP1 PUSH3 0x176E JUMP JUMPDEST SWAP2 POP PUSH1 0xA DUP6 PUSH3 0x6ED SWAP2 SWAP1 PUSH3 0x17A9 JUMP JUMPDEST PUSH1 0x30 PUSH3 0x6FB SWAP2 SWAP1 PUSH3 0x17E1 JUMP JUMPDEST PUSH1 0xF8 SHL DUP2 DUP4 DUP2 MLOAD DUP2 LT PUSH3 0x714 JUMPI PUSH3 0x713 PUSH3 0xEFB JUMP JUMPDEST JUMPDEST PUSH1 0x20 ADD ADD SWAP1 PUSH31 0xFFFFFFFFFFFFFFFFFFFFFFFFFFFFFFFFFFFFFFFFFFFFFFFFFFFFFFFFFFFFFF NOT AND SWAP1 DUP2 PUSH1 0x0 BYTE SWAP1 MSTORE8 POP PUSH1 0xA DUP6 PUSH3 0x752 SWAP2 SWAP1 PUSH3 0x1736 JUMP JUMPDEST SWAP5 POP PUSH3 0x6C4 JUMP JUMPDEST DUP1 SWAP4 POP POP POP POP JUMPDEST SWAP2 SWAP1 POP JUMP JUMPDEST PUSH1 0x60 PUSH1 0x0 PUSH1 0x2 DUP4 PUSH1 0x2 PUSH3 0x77B SWAP2 SWAP1 PUSH3 0x183E JUMP JUMPDEST PUSH3 0x787 SWAP2 SWAP1 PUSH3 0x17E1 JUMP JUMPDEST PUSH8 0xFFFFFFFFFFFFFFFF DUP2 GT ISZERO PUSH3 0x7A3 JUMPI PUSH3 0x7A2 PUSH3 0xAFB JUMP JUMPDEST JUMPDEST PUSH1 0x40 MLOAD SWAP1 DUP1 DUP3 MSTORE DUP1 PUSH1 0x1F ADD PUSH1 0x1F NOT AND PUSH1 0x20 ADD DUP3 ADD PUSH1 0x40 MSTORE DUP1 ISZERO PUSH3 0x7D6 JUMPI DUP2 PUSH1 0x20 ADD PUSH1 0x1 DUP3 MUL DUP1 CALLDATASIZE DUP4 CALLDATACOPY DUP1 DUP3 ADD SWAP2 POP POP SWAP1 POP JUMPDEST POP SWAP1 POP PUSH32 0x3000000000000000000000000000000000000000000000000000000000000000 DUP2 PUSH1 0x0 DUP2 MLOAD DUP2 LT PUSH3 0x811 JUMPI PUSH3 0x810 PUSH3 0xEFB JUMP JUMPDEST JUMPDEST PUSH1 0x20 ADD ADD SWAP1 PUSH31 0xFFFFFFFFFFFFFFFFFFFFFFFFFFFFFFFFFFFFFFFFFFFFFFFFFFFFFFFFFFFFFF NOT AND SWAP1 DUP2 PUSH1 0x0 BYTE SWAP1 MSTORE8 POP PUSH32 0x7800000000000000000000000000000000000000000000000000000000000000 DUP2 PUSH1 0x1 DUP2 MLOAD DUP2 LT PUSH3 0x878 JUMPI PUSH3 0x877 PUSH3 0xEFB JUMP JUMPDEST JUMPDEST PUSH1 0x20 ADD ADD SWAP1 PUSH31 0xFFFFFFFFFFFFFFFFFFFFFFFFFFFFFFFFFFFFFFFFFFFFFFFFFFFFFFFFFFFFFF NOT AND SWAP1 DUP2 PUSH1 0x0 BYTE SWAP1 MSTORE8 POP PUSH1 0x0 PUSH1 0x1 DUP5 PUSH1 0x2 PUSH3 0x8BA SWAP2 SWAP1 PUSH3 0x183E JUMP JUMPDEST PUSH3 0x8C6 SWAP2 SWAP1 PUSH3 0x17E1 JUMP JUMPDEST SWAP1 POP JUMPDEST PUSH1 0x1 DUP2 GT ISZERO PUSH3 0x970 JUMPI PUSH32 0x3031323334353637383961626364656600000000000000000000000000000000 PUSH1 0xF DUP7 AND PUSH1 0x10 DUP2 LT PUSH3 0x90C JUMPI PUSH3 0x90B PUSH3 0xEFB JUMP JUMPDEST JUMPDEST BYTE PUSH1 0xF8 SHL DUP3 DUP3 DUP2 MLOAD DUP2 LT PUSH3 0x926 JUMPI PUSH3 0x925 PUSH3 0xEFB JUMP JUMPDEST JUMPDEST PUSH1 0x20 ADD ADD SWAP1 PUSH31 0xFFFFFFFFFFFFFFFFFFFFFFFFFFFFFFFFFFFFFFFFFFFFFFFFFFFFFFFFFFFFFF NOT AND SWAP1 DUP2 PUSH1 0x0 BYTE SWAP1 MSTORE8 POP PUSH1 0x4 DUP6 SWAP1 SHR SWAP5 POP DUP1 PUSH3 0x968 SWAP1 PUSH3 0x189F JUMP JUMPDEST SWAP1 POP PUSH3 0x8C9 JUMP JUMPDEST POP PUSH1 0x0 DUP5 EQ PUSH3 0x9B7 JUMPI PUSH1 0x40 MLOAD PUSH32 0x8C379A000000000000000000000000000000000000000000000000000000000 DUP2 MSTORE PUSH1 0x4 ADD PUSH3 0x9AE SWAP1 PUSH3 0x191E JUMP JUMPDEST PUSH1 0x40 MLOAD DUP1 SWAP2 SUB SWAP1 REVERT JUMPDEST DUP1 SWAP2 POP POP SWAP3 SWAP2 POP POP JUMP JUMPDEST PUSH2 0x19CB DUP1 PUSH3 0x1941 DUP4 CODECOPY ADD SWAP1 JUMP JUMPDEST PUSH1 0x0 DUP2 SWAP1 POP SWAP2 SWAP1 POP JUMP JUMPDEST PUSH3 0x9E4 DUP2 PUSH3 0x9CF JUMP JUMPDEST DUP3 MSTORE POP POP JUMP JUMPDEST PUSH1 0x0 PUSH1 0x20 DUP3 ADD SWAP1 POP PUSH3 0xA01 PUSH1 0x0 DUP4 ADD DUP5 PUSH3 0x9D9 JUMP JUMPDEST SWAP3 SWAP2 POP POP JUMP JUMPDEST PUSH1 0x0 PUSH1 0x40 MLOAD SWAP1 POP SWAP1 JUMP JUMPDEST PUSH1 0x0 DUP1 REVERT JUMPDEST PUSH1 0x0 DUP1 REVERT JUMPDEST PUSH3 0xA26 DUP2 PUSH3 0x9CF JUMP JUMPDEST DUP2 EQ PUSH3 0xA32 JUMPI PUSH1 0x0 DUP1 REVERT JUMPDEST POP JUMP JUMPDEST PUSH1 0x0 DUP2 CALLDATALOAD SWAP1 POP PUSH3 0xA46 DUP2 PUSH3 0xA1B JUMP JUMPDEST SWAP3 SWAP2 POP POP JUMP JUMPDEST PUSH1 0x0 PUSH1 0x20 DUP3 DUP5 SUB SLT ISZERO PUSH3 0xA65 JUMPI PUSH3 0xA64 PUSH3 0xA11 JUMP JUMPDEST JUMPDEST PUSH1 0x0 PUSH3 0xA75 DUP5 DUP3 DUP6 ADD PUSH3 0xA35 JUMP JUMPDEST SWAP2 POP POP SWAP3 SWAP2 POP POP JUMP JUMPDEST PUSH1 0x0 PUSH20 0xFFFFFFFFFFFFFFFFFFFFFFFFFFFFFFFFFFFFFFFF DUP3 AND SWAP1 POP SWAP2 SWAP1 POP JUMP JUMPDEST PUSH1 0x0 PUSH3 0xAAB DUP3 PUSH3 0xA7E JUMP JUMPDEST SWAP1 POP SWAP2 SWAP1 POP JUMP JUMPDEST PUSH3 0xABD DUP2 PUSH3 0xA9E JUMP JUMPDEST DUP3 MSTORE POP POP JUMP JUMPDEST PUSH1 0x0 PUSH1 0x20 DUP3 ADD SWAP1 POP PUSH3 0xADA PUSH1 0x0 DUP4 ADD DUP5 PUSH3 0xAB2 JUMP JUMPDEST SWAP3 SWAP2 POP POP JUMP JUMPDEST PUSH1 0x0 DUP1 REVERT JUMPDEST PUSH1 0x0 DUP1 REVERT JUMPDEST PUSH1 0x0 PUSH1 0x1F NOT PUSH1 0x1F DUP4 ADD AND SWAP1 POP SWAP2 SWAP1 POP JUMP JUMPDEST PUSH32 0x4E487B7100000000000000000000000000000000000000000000000000000000 PUSH1 0x0 MSTORE PUSH1 0x41 PUSH1 0x4 MSTORE PUSH1 0x24 PUSH1 0x0 REVERT JUMPDEST PUSH3 0xB35 DUP3 PUSH3 0xAEA JUMP JUMPDEST DUP2 ADD DUP2 DUP2 LT PUSH8 0xFFFFFFFFFFFFFFFF DUP3 GT OR ISZERO PUSH3 0xB57 JUMPI PUSH3 0xB56 PUSH3 0xAFB JUMP JUMPDEST JUMPDEST DUP1 PUSH1 0x40 MSTORE POP POP POP JUMP JUMPDEST PUSH1 0x0 PUSH3 0xB6C PUSH3 0xA07 JUMP JUMPDEST SWAP1 POP PUSH3 0xB7A DUP3 DUP3 PUSH3 0xB2A JUMP JUMPDEST SWAP2 SWAP1 POP JUMP JUMPDEST PUSH1 0x0 PUSH8 0xFFFFFFFFFFFFFFFF DUP3 GT ISZERO PUSH3 0xB9D JUMPI PUSH3 0xB9C PUSH3 0xAFB JUMP JUMPDEST JUMPDEST PUSH3 0xBA8 DUP3 PUSH3 0xAEA JUMP JUMPDEST SWAP1 POP PUSH1 0x20 DUP2 ADD SWAP1 POP SWAP2 SWAP1 POP JUMP JUMPDEST DUP3 DUP2 DUP4 CALLDATACOPY PUSH1 0x0 DUP4 DUP4 ADD MSTORE POP POP POP JUMP JUMPDEST PUSH1 0x0 PUSH3 0xBDB PUSH3 0xBD5 DUP5 PUSH3 0xB7F JUMP JUMPDEST PUSH3 0xB60 JUMP JUMPDEST SWAP1 POP DUP3 DUP2 MSTORE PUSH1 0x20 DUP2 ADD DUP5 DUP5 DUP5 ADD GT ISZERO PUSH3 0xBFA JUMPI PUSH3 0xBF9 PUSH3 0xAE5 JUMP JUMPDEST JUMPDEST PUSH3 0xC07 DUP5 DUP3 DUP6 PUSH3 0xBB5 JUMP JUMPDEST POP SWAP4 SWAP3 POP POP POP JUMP JUMPDEST PUSH1 0x0 DUP3 PUSH1 0x1F DUP4 ADD SLT PUSH3 0xC27 JUMPI PUSH3 0xC26 PUSH3 0xAE0 JUMP JUMPDEST JUMPDEST DUP2 CALLDATALOAD PUSH3 0xC39 DUP5 DUP3 PUSH1 0x20 DUP7 ADD PUSH3 0xBC4 JUMP JUMPDEST SWAP2 POP POP SWAP3 SWAP2 POP POP JUMP JUMPDEST PUSH1 0x0 DUP1 PUSH1 0x0 DUP1 PUSH1 0x0 PUSH1 0xA0 DUP7 DUP9 SUB SLT ISZERO PUSH3 0xC61 JUMPI PUSH3 0xC60 PUSH3 0xA11 JUMP JUMPDEST JUMPDEST PUSH1 0x0 DUP7 ADD CALLDATALOAD PUSH8 0xFFFFFFFFFFFFFFFF DUP2 GT ISZERO PUSH3 0xC82 JUMPI PUSH3 0xC81 PUSH3 0xA16 JUMP JUMPDEST JUMPDEST PUSH3 0xC90 DUP9 DUP3 DUP10 ADD PUSH3 0xC0F JUMP JUMPDEST SWAP6 POP POP PUSH1 0x20 DUP7 ADD CALLDATALOAD PUSH8 0xFFFFFFFFFFFFFFFF DUP2 GT ISZERO PUSH3 0xCB4 JUMPI PUSH3 0xCB3 PUSH3 0xA16 JUMP JUMPDEST JUMPDEST PUSH3 0xCC2 DUP9 DUP3 DUP10 ADD PUSH3 0xC0F JUMP JUMPDEST SWAP5 POP POP PUSH1 0x40 DUP7 ADD CALLDATALOAD PUSH8 0xFFFFFFFFFFFFFFFF DUP2 GT ISZERO PUSH3 0xCE6 JUMPI PUSH3 0xCE5 PUSH3 0xA16 JUMP JUMPDEST JUMPDEST PUSH3 0xCF4 DUP9 DUP3 DUP10 ADD PUSH3 0xC0F JUMP JUMPDEST SWAP4 POP POP PUSH1 0x60 DUP7 ADD CALLDATALOAD PUSH8 0xFFFFFFFFFFFFFFFF DUP2 GT ISZERO PUSH3 0xD18 JUMPI PUSH3 0xD17 PUSH3 0xA16 JUMP JUMPDEST JUMPDEST PUSH3 0xD26 DUP9 DUP3 DUP10 ADD PUSH3 0xC0F JUMP JUMPDEST SWAP3 POP POP PUSH1 0x80 DUP7 ADD CALLDATALOAD PUSH8 0xFFFFFFFFFFFFFFFF DUP2 GT ISZERO PUSH3 0xD4A JUMPI PUSH3 0xD49 PUSH3 0xA16 JUMP JUMPDEST JUMPDEST PUSH3 0xD58 DUP9 DUP3 DUP10 ADD PUSH3 0xC0F JUMP JUMPDEST SWAP2 POP POP SWAP3 SWAP6 POP SWAP3 SWAP6 SWAP1 SWAP4 POP JUMP JUMPDEST PUSH1 0x0 DUP2 ISZERO ISZERO SWAP1 POP SWAP2 SWAP1 POP JUMP JUMPDEST PUSH3 0xD7C DUP2 PUSH3 0xD65 JUMP JUMPDEST DUP3 MSTORE POP POP JUMP JUMPDEST PUSH1 0x0 PUSH1 0x20 DUP3 ADD SWAP1 POP PUSH3 0xD99 PUSH1 0x0 DUP4 ADD DUP5 PUSH3 0xD71 JUMP JUMPDEST SWAP3 SWAP2 POP POP JUMP JUMPDEST PUSH1 0x0 DUP1 PUSH1 0x0 DUP1 PUSH1 0x0 DUP1 PUSH1 0x0 PUSH1 0xE0 DUP9 DUP11 SUB SLT ISZERO PUSH3 0xDC1 JUMPI PUSH3 0xDC0 PUSH3 0xA11 JUMP JUMPDEST JUMPDEST PUSH1 0x0 PUSH3 0xDD1 DUP11 DUP3 DUP12 ADD PUSH3 0xA35 JUMP JUMPDEST SWAP8 POP POP PUSH1 0x20 PUSH3 0xDE4 DUP11 DUP3 DUP12 ADD PUSH3 0xA35 JUMP JUMPDEST SWAP7 POP POP PUSH1 0x40 DUP9 ADD CALLDATALOAD PUSH8 0xFFFFFFFFFFFFFFFF DUP2 GT ISZERO PUSH3 0xE08 JUMPI PUSH3 0xE07 PUSH3 0xA16 JUMP JUMPDEST JUMPDEST PUSH3 0xE16 DUP11 DUP3 DUP12 ADD PUSH3 0xC0F JUMP JUMPDEST SWAP6 POP POP PUSH1 0x60 DUP9 ADD CALLDATALOAD PUSH8 0xFFFFFFFFFFFFFFFF DUP2 GT ISZERO PUSH3 0xE3A JUMPI PUSH3 0xE39 PUSH3 0xA16 JUMP JUMPDEST JUMPDEST PUSH3 0xE48 DUP11 DUP3 DUP12 ADD PUSH3 0xC0F JUMP JUMPDEST SWAP5 POP POP PUSH1 0x80 DUP9 ADD CALLDATALOAD PUSH8 0xFFFFFFFFFFFFFFFF DUP2 GT ISZERO PUSH3 0xE6C JUMPI PUSH3 0xE6B PUSH3 0xA16 JUMP JUMPDEST JUMPDEST PUSH3 0xE7A DUP11 DUP3 DUP12 ADD PUSH3 0xC0F JUMP JUMPDEST SWAP4 POP POP PUSH1 0xA0 PUSH3 0xE8D DUP11 DUP3 DUP12 ADD PUSH3 0xA35 JUMP JUMPDEST SWAP3 POP POP PUSH1 0xC0 DUP9 ADD CALLDATALOAD PUSH8 0xFFFFFFFFFFFFFFFF DUP2 GT ISZERO PUSH3 0xEB1 JUMPI PUSH3 0xEB0 PUSH3 0xA16 JUMP JUMPDEST JUMPDEST PUSH3 0xEBF DUP11 DUP3 DUP12 ADD PUSH3 0xC0F JUMP JUMPDEST SWAP2 POP POP SWAP3 SWAP6 SWAP9 SWAP2 SWAP5 SWAP8 POP SWAP3 SWAP6 POP JUMP JUMPDEST PUSH1 0x0 PUSH1 0x40 DUP3 ADD SWAP1 POP PUSH3 0xEE5 PUSH1 0x0 DUP4 ADD DUP6 PUSH3 0xAB2 JUMP JUMPDEST PUSH3 0xEF4 PUSH1 0x20 DUP4 ADD DUP5 PUSH3 0x9D9 JUMP JUMPDEST SWAP4 SWAP3 POP POP POP JUMP JUMPDEST PUSH32 0x4E487B7100000000000000000000000000000000000000000000000000000000 PUSH1 0x0 MSTORE PUSH1 0x32 PUSH1 0x4 MSTORE PUSH1 0x24 PUSH1 0x0 REVERT JUMPDEST PUSH32 0x494E5345525420494E544F200000000000000000000000000000000000000000 DUP2 MSTORE POP JUMP JUMPDEST PUSH32 0x4E487B7100000000000000000000000000000000000000000000000000000000 PUSH1 0x0 MSTORE PUSH1 0x22 PUSH1 0x4 MSTORE PUSH1 0x24 PUSH1 0x0 REVERT JUMPDEST PUSH1 0x0 PUSH1 0x2 DUP3 DIV SWAP1 POP PUSH1 0x1 DUP3 AND DUP1 PUSH3 0xF98 JUMPI PUSH1 0x7F DUP3 AND SWAP2 POP JUMPDEST PUSH1 0x20 DUP3 LT DUP2 EQ ISZERO PUSH3 0xFAF JUMPI PUSH3 0xFAE PUSH3 0xF50 JUMP JUMPDEST JUMPDEST POP SWAP2 SWAP1 POP JUMP JUMPDEST PUSH1 0x0 DUP2 SWAP1 POP SWAP3 SWAP2 POP POP JUMP JUMPDEST PUSH1 0x0 DUP2 SWAP1 POP DUP2 PUSH1 0x0 MSTORE PUSH1 0x20 PUSH1 0x0 KECCAK256 SWAP1 POP SWAP2 SWAP1 POP JUMP JUMPDEST PUSH1 0x0 DUP2 SLOAD PUSH3 0xFE4 DUP2 PUSH3 0xF7F JUMP JUMPDEST PUSH3 0xFF0 DUP2 DUP7 PUSH3 0xFB5 JUMP JUMPDEST SWAP5 POP PUSH1 0x1 DUP3 AND PUSH1 0x0 DUP2 EQ PUSH3 0x100E JUMPI PUSH1 0x1 DUP2 EQ PUSH3 0x1020 JUMPI PUSH3 0x1057 JUMP JUMPDEST PUSH1 0xFF NOT DUP4 AND DUP7 MSTORE DUP2 DUP7 ADD SWAP4 POP PUSH3 0x1057 JUMP JUMPDEST PUSH3 0x102B DUP6 PUSH3 0xFC0 JUMP JUMPDEST PUSH1 0x0 JUMPDEST DUP4 DUP2 LT ISZERO PUSH3 0x104F JUMPI DUP2 SLOAD DUP2 DUP10 ADD MSTORE PUSH1 0x1 DUP3 ADD SWAP2 POP PUSH1 0x20 DUP2 ADD SWAP1 POP PUSH3 0x102E JUMP JUMPDEST DUP4 DUP9 ADD SWAP6 POP POP POP JUMPDEST POP POP POP SWAP3 SWAP2 POP POP JUMP JUMPDEST PUSH32 0x20286861636B6174686F6E4164642C2070726F6A6563744F776E65722C207072 PUSH1 0x0 DUP3 ADD MSTORE PUSH32 0x6F6A6563744E616D652C206465736372697074696F6E2C2070726F6A6563744C PUSH1 0x20 DUP3 ADD MSTORE PUSH32 0x696E6B292056414C554553202800000000000000000000000000000000000000 PUSH1 0x40 DUP3 ADD MSTORE POP JUMP JUMPDEST PUSH1 0x0 PUSH3 0x10E4 PUSH1 0x4D DUP4 PUSH3 0xFB5 JUMP JUMPDEST SWAP2 POP PUSH3 0x10F1 DUP3 PUSH3 0x1060 JUMP JUMPDEST PUSH1 0x4D DUP3 ADD SWAP1 POP SWAP2 SWAP1 POP JUMP JUMPDEST PUSH1 0x0 DUP2 MLOAD SWAP1 POP SWAP2 SWAP1 POP JUMP JUMPDEST PUSH1 0x0 JUMPDEST DUP4 DUP2 LT ISZERO PUSH3 0x1127 JUMPI DUP1 DUP3 ADD MLOAD DUP2 DUP5 ADD MSTORE PUSH1 0x20 DUP2 ADD SWAP1 POP PUSH3 0x110A JUMP JUMPDEST DUP4 DUP2 GT ISZERO PUSH3 0x1137 JUMPI PUSH1 0x0 DUP5 DUP5 ADD MSTORE JUMPDEST POP POP POP POP JUMP JUMPDEST PUSH1 0x0 PUSH3 0x114A DUP3 PUSH3 0x10FC JUMP JUMPDEST PUSH3 0x1156 DUP2 DUP6 PUSH3 0xFB5 JUMP JUMPDEST SWAP4 POP PUSH3 0x1168 DUP2 DUP6 PUSH1 0x20 DUP7 ADD PUSH3 0x1107 JUMP JUMPDEST DUP1 DUP5 ADD SWAP2 POP POP SWAP3 SWAP2 POP POP JUMP JUMPDEST PUSH32 0x2C00000000000000000000000000000000000000000000000000000000000000 DUP2 MSTORE POP JUMP JUMPDEST PUSH32 0x2900000000000000000000000000000000000000000000000000000000000000 DUP2 MSTORE POP JUMP JUMPDEST PUSH1 0x0 PUSH3 0x11CD DUP3 PUSH3 0xF2A JUMP JUMPDEST PUSH1 0xC DUP3 ADD SWAP2 POP PUSH3 0x11DF DUP3 DUP10 PUSH3 0xFD5 JUMP JUMPDEST SWAP2 POP PUSH3 0x11EC DUP3 PUSH3 0x10D5 JUMP JUMPDEST SWAP2 POP PUSH3 0x11FA DUP3 DUP9 PUSH3 0x113D JUMP JUMPDEST SWAP2 POP PUSH3 0x1207 DUP3 PUSH3 0x1174 JUMP JUMPDEST PUSH1 0x1 DUP3 ADD SWAP2 POP PUSH3 0x1219 DUP3 DUP8 PUSH3 0x113D JUMP JUMPDEST SWAP2 POP PUSH3 0x1226 DUP3 PUSH3 0x1174 JUMP JUMPDEST PUSH1 0x1 DUP3 ADD SWAP2 POP PUSH3 0x1238 DUP3 DUP7 PUSH3 0x113D JUMP JUMPDEST SWAP2 POP PUSH3 0x1245 DUP3 PUSH3 0x1174 JUMP JUMPDEST PUSH1 0x1 DUP3 ADD SWAP2 POP PUSH3 0x1257 DUP3 DUP6 PUSH3 0x113D JUMP JUMPDEST SWAP2 POP PUSH3 0x1264 DUP3 PUSH3 0x1174 JUMP JUMPDEST PUSH1 0x1 DUP3 ADD SWAP2 POP PUSH3 0x1276 DUP3 DUP5 PUSH3 0x113D JUMP JUMPDEST SWAP2 POP PUSH3 0x1283 DUP3 PUSH3 0x119A JUMP JUMPDEST PUSH1 0x1 DUP3 ADD SWAP2 POP DUP2 SWAP1 POP SWAP8 SWAP7 POP POP POP POP POP POP POP JUMP JUMPDEST PUSH1 0x0 DUP3 DUP3 MSTORE PUSH1 0x20 DUP3 ADD SWAP1 POP SWAP3 SWAP2 POP POP JUMP JUMPDEST PUSH1 0x0 PUSH3 0x12B5 DUP3 PUSH3 0x10FC JUMP JUMPDEST PUSH3 0x12C1 DUP2 DUP6 PUSH3 0x1297 JUMP JUMPDEST SWAP4 POP PUSH3 0x12D3 DUP2 DUP6 PUSH1 0x20 DUP7 ADD PUSH3 0x1107 JUMP JUMPDEST PUSH3 0x12DE DUP2 PUSH3 0xAEA JUMP JUMPDEST DUP5 ADD SWAP2 POP POP SWAP3 SWAP2 POP POP JUMP JUMPDEST PUSH1 0x0 PUSH1 0x60 DUP3 ADD SWAP1 POP PUSH3 0x1300 PUSH1 0x0 DUP4 ADD DUP7 PUSH3 0xAB2 JUMP JUMPDEST PUSH3 0x130F PUSH1 0x20 DUP4 ADD DUP6 PUSH3 0x9D9 JUMP JUMPDEST DUP2 DUP2 SUB PUSH1 0x40 DUP4 ADD MSTORE PUSH3 0x1323 DUP2 DUP5 PUSH3 0x12A8 JUMP JUMPDEST SWAP1 POP SWAP5 SWAP4 POP POP POP POP JUMP JUMPDEST PUSH32 0x4861636B6174686F6E466163746F72793A20696E73756666696369656E742066 PUSH1 0x0 DUP3 ADD MSTORE PUSH32 0x756E64732E000000000000000000000000000000000000000000000000000000 PUSH1 0x20 DUP3 ADD MSTORE POP JUMP JUMPDEST PUSH1 0x0 PUSH3 0x138B PUSH1 0x25 DUP4 PUSH3 0x1297 JUMP JUMPDEST SWAP2 POP PUSH3 0x1398 DUP3 PUSH3 0x132D JUMP JUMPDEST PUSH1 0x40 DUP3 ADD SWAP1 POP SWAP2 SWAP1 POP JUMP JUMPDEST PUSH1 0x0 PUSH1 0x20 DUP3 ADD SWAP1 POP DUP2 DUP2 SUB PUSH1 0x0 DUP4 ADD MSTORE PUSH3 0x13BE DUP2 PUSH3 0x137C JUMP JUMPDEST SWAP1 POP SWAP2 SWAP1 POP JUMP JUMPDEST PUSH32 0x4861636B6174686F6E466163746F72793A20556E6D61746368696E672066756E PUSH1 0x0 DUP3 ADD MSTORE PUSH32 0x64732E0000000000000000000000000000000000000000000000000000000000 PUSH1 0x20 DUP3 ADD MSTORE POP JUMP JUMPDEST PUSH1 0x0 PUSH3 0x1423 PUSH1 0x23 DUP4 PUSH3 0x1297 JUMP JUMPDEST SWAP2 POP PUSH3 0x1430 DUP3 PUSH3 0x13C5 JUMP JUMPDEST PUSH1 0x40 DUP3 ADD SWAP1 POP SWAP2 SWAP1 POP JUMP JUMPDEST PUSH1 0x0 PUSH1 0x20 DUP3 ADD SWAP1 POP DUP2 DUP2 SUB PUSH1 0x0 DUP4 ADD MSTORE PUSH3 0x1456 DUP2 PUSH3 0x1414 JUMP JUMPDEST SWAP1 POP SWAP2 SWAP1 POP JUMP JUMPDEST PUSH1 0x0 PUSH1 0x80 DUP3 ADD SWAP1 POP PUSH3 0x1474 PUSH1 0x0 DUP4 ADD DUP8 PUSH3 0x9D9 JUMP JUMPDEST PUSH3 0x1483 PUSH1 0x20 DUP4 ADD DUP7 PUSH3 0x9D9 JUMP JUMPDEST PUSH3 0x1492 PUSH1 0x40 DUP4 ADD DUP6 PUSH3 0x9D9 JUMP JUMPDEST PUSH3 0x14A1 PUSH1 0x60 DUP4 ADD DUP5 PUSH3 0xAB2 JUMP JUMPDEST SWAP6 SWAP5 POP POP POP POP POP JUMP JUMPDEST PUSH32 0x202869642C206861636B6174686F6E4164642C206861636B6174686F6E5F6E61 PUSH1 0x0 DUP3 ADD MSTORE PUSH32 0x6D652C206465736372697074696F6E2C206F7267616E697A65722C20746F7461 PUSH1 0x20 DUP3 ADD MSTORE PUSH32 0x6C5F7072697A652C2064617465292056414C5545532028000000000000000000 PUSH1 0x40 DUP3 ADD MSTORE POP JUMP JUMPDEST PUSH1 0x0 PUSH3 0x152E PUSH1 0x57 DUP4 PUSH3 0xFB5 JUMP JUMPDEST SWAP2 POP PUSH3 0x153B DUP3 PUSH3 0x14AA JUMP JUMPDEST PUSH1 0x57 DUP3 ADD SWAP1 POP SWAP2 SWAP1 POP JUMP JUMPDEST PUSH1 0x0 PUSH3 0x1553 DUP3 PUSH3 0xF2A JUMP JUMPDEST PUSH1 0xC DUP3 ADD SWAP2 POP PUSH3 0x1565 DUP3 DUP12 PUSH3 0xFD5 JUMP JUMPDEST SWAP2 POP PUSH3 0x1572 DUP3 PUSH3 0x151F JUMP JUMPDEST SWAP2 POP PUSH3 0x1580 DUP3 DUP11 PUSH3 0x113D JUMP JUMPDEST SWAP2 POP PUSH3 0x158D DUP3 PUSH3 0x1174 JUMP JUMPDEST PUSH1 0x1 DUP3 ADD SWAP2 POP PUSH3 0x159F DUP3 DUP10 PUSH3 0x113D JUMP JUMPDEST SWAP2 POP PUSH3 0x15AC DUP3 PUSH3 0x1174 JUMP JUMPDEST PUSH1 0x1 DUP3 ADD SWAP2 POP PUSH3 0x15BE DUP3 DUP9 PUSH3 0x113D JUMP JUMPDEST SWAP2 POP PUSH3 0x15CB DUP3 PUSH3 0x1174 JUMP JUMPDEST PUSH1 0x1 DUP3 ADD SWAP2 POP PUSH3 0x15DD DUP3 DUP8 PUSH3 0x113D JUMP JUMPDEST SWAP2 POP PUSH3 0x15EA DUP3 PUSH3 0x1174 JUMP JUMPDEST PUSH1 0x1 DUP3 ADD SWAP2 POP PUSH3 0x15FC DUP3 DUP7 PUSH3 0x113D JUMP JUMPDEST SWAP2 POP PUSH3 0x1609 DUP3 PUSH3 0x1174 JUMP JUMPDEST PUSH1 0x1 DUP3 ADD SWAP2 POP PUSH3 0x161B DUP3 DUP6 PUSH3 0x113D JUMP JUMPDEST SWAP2 POP PUSH3 0x1628 DUP3 PUSH3 0x1174 JUMP JUMPDEST PUSH1 0x1 DUP3 ADD SWAP2 POP PUSH3 0x163A DUP3 DUP5 PUSH3 0x113D JUMP JUMPDEST SWAP2 POP PUSH3 0x1647 DUP3 PUSH3 0x119A JUMP JUMPDEST PUSH1 0x1 DUP3 ADD SWAP2 POP DUP2 SWAP1 POP SWAP10 SWAP9 POP POP POP POP POP POP POP POP POP JUMP JUMPDEST PUSH1 0x0 PUSH1 0x40 DUP3 ADD SWAP1 POP PUSH3 0x1674 PUSH1 0x0 DUP4 ADD DUP6 PUSH3 0x9D9 JUMP JUMPDEST PUSH3 0x1683 PUSH1 0x20 DUP4 ADD DUP5 PUSH3 0xAB2 JUMP JUMPDEST SWAP4 SWAP3 POP POP POP JUMP JUMPDEST PUSH32 0x4E487B7100000000000000000000000000000000000000000000000000000000 PUSH1 0x0 MSTORE PUSH1 0x11 PUSH1 0x4 MSTORE PUSH1 0x24 PUSH1 0x0 REVERT JUMPDEST PUSH1 0x0 PUSH3 0x16C6 DUP3 PUSH3 0x9CF JUMP JUMPDEST SWAP2 POP PUSH32 0xFFFFFFFFFFFFFFFFFFFFFFFFFFFFFFFFFFFFFFFFFFFFFFFFFFFFFFFFFFFFFFFF DUP3 EQ ISZERO PUSH3 0x16FC JUMPI PUSH3 0x16FB PUSH3 0x168A JUMP JUMPDEST JUMPDEST PUSH1 0x1 DUP3 ADD SWAP1 POP SWAP2 SWAP1 POP JUMP JUMPDEST PUSH32 0x4E487B7100000000000000000000000000000000000000000000000000000000 PUSH1 0x0 MSTORE PUSH1 0x12 PUSH1 0x4 MSTORE PUSH1 0x24 PUSH1 0x0 REVERT JUMPDEST PUSH1 0x0 PUSH3 0x1743 DUP3 PUSH3 0x9CF JUMP JUMPDEST SWAP2 POP PUSH3 0x1750 DUP4 PUSH3 0x9CF JUMP JUMPDEST SWAP3 POP DUP3 PUSH3 0x1763 JUMPI PUSH3 0x1762 PUSH3 0x1707 JUMP JUMPDEST JUMPDEST DUP3 DUP3 DIV SWAP1 POP SWAP3 SWAP2 POP POP JUMP JUMPDEST PUSH1 0x0 PUSH3 0x177B DUP3 PUSH3 0x9CF JUMP JUMPDEST SWAP2 POP PUSH3 0x1788 DUP4 PUSH3 0x9CF JUMP JUMPDEST SWAP3 POP DUP3 DUP3 LT ISZERO PUSH3 0x179E JUMPI PUSH3 0x179D PUSH3 0x168A JUMP JUMPDEST JUMPDEST DUP3 DUP3 SUB SWAP1 POP SWAP3 SWAP2 POP POP JUMP JUMPDEST PUSH1 0x0 PUSH3 0x17B6 DUP3 PUSH3 0x9CF JUMP JUMPDEST SWAP2 POP PUSH3 0x17C3 DUP4 PUSH3 0x9CF JUMP JUMPDEST SWAP3 POP DUP3 PUSH3 0x17D6 JUMPI PUSH3 0x17D5 PUSH3 0x1707 JUMP JUMPDEST JUMPDEST DUP3 DUP3 MOD SWAP1 POP SWAP3 SWAP2 POP POP JUMP JUMPDEST PUSH1 0x0 PUSH3 0x17EE DUP3 PUSH3 0x9CF JUMP JUMPDEST SWAP2 POP PUSH3 0x17FB DUP4 PUSH3 0x9CF JUMP JUMPDEST SWAP3 POP DUP3 PUSH32 0xFFFFFFFFFFFFFFFFFFFFFFFFFFFFFFFFFFFFFFFFFFFFFFFFFFFFFFFFFFFFFFFF SUB DUP3 GT ISZERO PUSH3 0x1833 JUMPI PUSH3 0x1832 PUSH3 0x168A JUMP JUMPDEST JUMPDEST DUP3 DUP3 ADD SWAP1 POP SWAP3 SWAP2 POP POP JUMP JUMPDEST PUSH1 0x0 PUSH3 0x184B DUP3 PUSH3 0x9CF JUMP JUMPDEST SWAP2 POP PUSH3 0x1858 DUP4 PUSH3 0x9CF JUMP JUMPDEST SWAP3 POP DUP2 PUSH32 0xFFFFFFFFFFFFFFFFFFFFFFFFFFFFFFFFFFFFFFFFFFFFFFFFFFFFFFFFFFFFFFFF DIV DUP4 GT DUP3 ISZERO ISZERO AND ISZERO PUSH3 0x1894 JUMPI PUSH3 0x1893 PUSH3 0x168A JUMP JUMPDEST JUMPDEST DUP3 DUP3 MUL SWAP1 POP SWAP3 SWAP2 POP POP JUMP JUMPDEST PUSH1 0x0 PUSH3 0x18AC DUP3 PUSH3 0x9CF JUMP JUMPDEST SWAP2 POP PUSH1 0x0 DUP3 EQ ISZERO PUSH3 0x18C3 JUMPI PUSH3 0x18C2 PUSH3 0x168A JUMP JUMPDEST JUMPDEST PUSH1 0x1 DUP3 SUB SWAP1 POP SWAP2 SWAP1 POP JUMP JUMPDEST PUSH32 0x537472696E67733A20686578206C656E67746820696E73756666696369656E74 PUSH1 0x0 DUP3 ADD MSTORE POP JUMP JUMPDEST PUSH1 0x0 PUSH3 0x1906 PUSH1 0x20 DUP4 PUSH3 0x1297 JUMP JUMPDEST SWAP2 POP PUSH3 0x1913 DUP3 PUSH3 0x18CE JUMP JUMPDEST PUSH1 0x20 DUP3 ADD SWAP1 POP SWAP2 SWAP1 POP JUMP JUMPDEST PUSH1 0x0 PUSH1 0x20 DUP3 ADD SWAP1 POP DUP2 DUP2 SUB PUSH1 0x0 DUP4 ADD MSTORE PUSH3 0x1939 DUP2 PUSH3 0x18F7 JUMP JUMPDEST SWAP1 POP SWAP2 SWAP1 POP JUMP INVALID PUSH1 0x80 PUSH1 0x40 MSTORE PUSH1 0x40 MLOAD PUSH3 0x19CB CODESIZE SUB DUP1 PUSH3 0x19CB DUP4 CODECOPY DUP2 DUP2 ADD PUSH1 0x40 MSTORE DUP2 ADD SWAP1 PUSH3 0x29 SWAP2 SWAP1 PUSH3 0x1C8 JUMP JUMPDEST DUP4 PUSH1 0x0 DUP2 SWAP1 SSTORE POP DUP1 PUSH1 0x1 PUSH1 0x0 PUSH2 0x100 EXP DUP2 SLOAD DUP2 PUSH20 0xFFFFFFFFFFFFFFFFFFFFFFFFFFFFFFFFFFFFFFFF MUL NOT AND SWAP1 DUP4 PUSH20 0xFFFFFFFFFFFFFFFFFFFFFFFFFFFFFFFFFFFFFFFF AND MUL OR SWAP1 SSTORE POP PUSH1 0x1 DUP1 PUSH1 0x14 PUSH2 0x100 EXP DUP2 SLOAD DUP2 PUSH1 0xFF MUL NOT AND SWAP1 DUP4 ISZERO ISZERO MUL OR SWAP1 SSTORE POP DUP2 PUSH1 0x4 DUP2 SWAP1 SSTORE POP TIMESTAMP PUSH1 0x2 DUP2 SWAP1 SSTORE POP PUSH1 0x2 SLOAD DUP4 PUSH3 0xA9 SWAP2 SWAP1 PUSH3 0x269 JUMP JUMPDEST PUSH1 0x3 DUP2 SWAP1 SSTORE POP PUSH1 0x1 PUSH1 0x6 PUSH1 0x0 PUSH1 0x1 PUSH1 0x0 SWAP1 SLOAD SWAP1 PUSH2 0x100 EXP SWAP1 DIV PUSH20 0xFFFFFFFFFFFFFFFFFFFFFFFFFFFFFFFFFFFFFFFF AND PUSH20 0xFFFFFFFFFFFFFFFFFFFFFFFFFFFFFFFFFFFFFFFF AND PUSH20 0xFFFFFFFFFFFFFFFFFFFFFFFFFFFFFFFFFFFFFFFF AND DUP2 MSTORE PUSH1 0x20 ADD SWAP1 DUP2 MSTORE PUSH1 0x20 ADD PUSH1 0x0 KECCAK256 PUSH1 0x0 ADD DUP2 SWAP1 SSTORE POP POP POP POP POP PUSH3 0x2C6 JUMP JUMPDEST PUSH1 0x0 DUP1 REVERT JUMPDEST PUSH1 0x0 DUP2 SWAP1 POP SWAP2 SWAP1 POP JUMP JUMPDEST PUSH3 0x13D DUP2 PUSH3 0x128 JUMP JUMPDEST DUP2 EQ PUSH3 0x149 JUMPI PUSH1 0x0 DUP1 REVERT JUMPDEST POP JUMP JUMPDEST PUSH1 0x0 DUP2 MLOAD SWAP1 POP PUSH3 0x15D DUP2 PUSH3 0x132 JUMP JUMPDEST SWAP3 SWAP2 POP POP JUMP JUMPDEST PUSH1 0x0 PUSH20 0xFFFFFFFFFFFFFFFFFFFFFFFFFFFFFFFFFFFFFFFF DUP3 AND SWAP1 POP SWAP2 SWAP1 POP JUMP JUMPDEST PUSH1 0x0 PUSH3 0x190 DUP3 PUSH3 0x163 JUMP JUMPDEST SWAP1 POP SWAP2 SWAP1 POP JUMP JUMPDEST PUSH3 0x1A2 DUP2 PUSH3 0x183 JUMP JUMPDEST DUP2 EQ PUSH3 0x1AE JUMPI PUSH1 0x0 DUP1 REVERT JUMPDEST POP JUMP JUMPDEST PUSH1 0x0 DUP2 MLOAD SWAP1 POP PUSH3 0x1C2 DUP2 PUSH3 0x197 JUMP JUMPDEST SWAP3 SWAP2 POP POP JUMP JUMPDEST PUSH1 0x0 DUP1 PUSH1 0x0 DUP1 PUSH1 0x80 DUP6 DUP8 SUB SLT ISZERO PUSH3 0x1E5 JUMPI PUSH3 0x1E4 PUSH3 0x123 JUMP JUMPDEST JUMPDEST PUSH1 0x0 PUSH3 0x1F5 DUP8 DUP3 DUP9 ADD PUSH3 0x14C JUMP JUMPDEST SWAP5 POP POP PUSH1 0x20 PUSH3 0x208 DUP8 DUP3 DUP9 ADD PUSH3 0x14C JUMP JUMPDEST SWAP4 POP POP PUSH1 0x40 PUSH3 0x21B DUP8 DUP3 DUP9 ADD PUSH3 0x14C JUMP JUMPDEST SWAP3 POP POP PUSH1 0x60 PUSH3 0x22E DUP8 DUP3 DUP9 ADD PUSH3 0x1B1 JUMP JUMPDEST SWAP2 POP POP SWAP3 SWAP6 SWAP2 SWAP5 POP SWAP3 POP JUMP JUMPDEST PUSH32 0x4E487B7100000000000000000000000000000000000000000000000000000000 PUSH1 0x0 MSTORE PUSH1 0x11 PUSH1 0x4 MSTORE PUSH1 0x24 PUSH1 0x0 REVERT JUMPDEST PUSH1 0x0 PUSH3 0x276 DUP3 PUSH3 0x128 JUMP JUMPDEST SWAP2 POP PUSH3 0x283 DUP4 PUSH3 0x128 JUMP JUMPDEST SWAP3 POP DUP3 PUSH32 0xFFFFFFFFFFFFFFFFFFFFFFFFFFFFFFFFFFFFFFFFFFFFFFFFFFFFFFFFFFFFFFFF SUB DUP3 GT ISZERO PUSH3 0x2BB JUMPI PUSH3 0x2BA PUSH3 0x23A JUMP JUMPDEST JUMPDEST DUP3 DUP3 ADD SWAP1 POP SWAP3 SWAP2 POP POP JUMP JUMPDEST PUSH2 0x16F5 DUP1 PUSH3 0x2D6 PUSH1 0x0 CODECOPY PUSH1 0x0 RETURN INVALID PUSH1 0x80 PUSH1 0x40 MSTORE PUSH1 0x4 CALLDATASIZE LT PUSH2 0xA0 JUMPI PUSH1 0x0 CALLDATALOAD PUSH1 0xE0 SHR DUP1 PUSH4 0xA3C4A17A GT PUSH2 0x64 JUMPI DUP1 PUSH4 0xA3C4A17A EQ PUSH2 0x17E JUMPI DUP1 PUSH4 0xDF0AF9DA EQ PUSH2 0x1A7 JUMPI DUP1 PUSH4 0xDFBF53AE EQ PUSH2 0x1C3 JUMPI DUP1 PUSH4 0xE2BA53F0 EQ PUSH2 0x1EE JUMPI DUP1 PUSH4 0xED7A4E0B EQ PUSH2 0x219 JUMPI DUP1 PUSH4 0xF3FDDFFE EQ PUSH2 0x244 JUMPI PUSH2 0xA7 JUMP JUMPDEST DUP1 PUSH4 0x121B93F EQ PUSH2 0xA9 JUMPI DUP1 PUSH4 0x13CF08B EQ PUSH2 0xD2 JUMPI DUP1 PUSH4 0xE4451CA EQ PUSH2 0x111 JUMPI DUP1 PUSH4 0x4895367B EQ PUSH2 0x13C JUMPI DUP1 PUSH4 0x609FF1BD EQ PUSH2 0x153 JUMPI PUSH2 0xA7 JUMP JUMPDEST CALLDATASIZE PUSH2 0xA7 JUMPI STOP JUMPDEST STOP JUMPDEST CALLVALUE DUP1 ISZERO PUSH2 0xB5 JUMPI PUSH1 0x0 DUP1 REVERT JUMPDEST POP PUSH2 0xD0 PUSH1 0x4 DUP1 CALLDATASIZE SUB DUP2 ADD SWAP1 PUSH2 0xCB SWAP2 SWAP1 PUSH2 0xD09 JUMP JUMPDEST PUSH2 0x284 JUMP JUMPDEST STOP JUMPDEST CALLVALUE DUP1 ISZERO PUSH2 0xDE JUMPI PUSH1 0x0 DUP1 REVERT JUMPDEST POP PUSH2 0xF9 PUSH1 0x4 DUP1 CALLDATASIZE SUB DUP2 ADD SWAP1 PUSH2 0xF4 SWAP2 SWAP1 PUSH2 0xD09 JUMP JUMPDEST PUSH2 0x47F JUMP JUMPDEST PUSH1 0x40 MLOAD PUSH2 0x108 SWAP4 SWAP3 SWAP2 SWAP1 PUSH2 0xE1F JUMP JUMPDEST PUSH1 0x40 MLOAD DUP1 SWAP2 SUB SWAP1 RETURN JUMPDEST CALLVALUE DUP1 ISZERO PUSH2 0x11D JUMPI PUSH1 0x0 DUP1 REVERT JUMPDEST POP PUSH2 0x126 PUSH2 0x561 JUMP JUMPDEST PUSH1 0x40 MLOAD PUSH2 0x133 SWAP2 SWAP1 PUSH2 0xE5D JUMP JUMPDEST PUSH1 0x40 MLOAD DUP1 SWAP2 SUB SWAP1 RETURN JUMPDEST CALLVALUE DUP1 ISZERO PUSH2 0x148 JUMPI PUSH1 0x0 DUP1 REVERT JUMPDEST POP PUSH2 0x151 PUSH2 0x587 JUMP JUMPDEST STOP JUMPDEST CALLVALUE DUP1 ISZERO PUSH2 0x15F JUMPI PUSH1 0x0 DUP1 REVERT JUMPDEST POP PUSH2 0x168 PUSH2 0x690 JUMP JUMPDEST PUSH1 0x40 MLOAD PUSH2 0x175 SWAP2 SWAP1 PUSH2 0xE78 JUMP JUMPDEST PUSH1 0x40 MLOAD DUP1 SWAP2 SUB SWAP1 RETURN JUMPDEST CALLVALUE DUP1 ISZERO PUSH2 0x18A JUMPI PUSH1 0x0 DUP1 REVERT JUMPDEST POP PUSH2 0x1A5 PUSH1 0x4 DUP1 CALLDATASIZE SUB DUP2 ADD SWAP1 PUSH2 0x1A0 SWAP2 SWAP1 PUSH2 0xFF4 JUMP JUMPDEST PUSH2 0x718 JUMP JUMPDEST STOP JUMPDEST PUSH2 0x1C1 PUSH1 0x4 DUP1 CALLDATASIZE SUB DUP2 ADD SWAP1 PUSH2 0x1BC SWAP2 SWAP1 PUSH2 0xD09 JUMP JUMPDEST PUSH2 0x9C1 JUMP JUMPDEST STOP JUMPDEST CALLVALUE DUP1 ISZERO PUSH2 0x1CF JUMPI PUSH1 0x0 DUP1 REVERT JUMPDEST POP PUSH2 0x1D8 PUSH2 0xA89 JUMP JUMPDEST PUSH1 0x40 MLOAD PUSH2 0x1E5 SWAP2 SWAP1 PUSH2 0x1071 JUMP JUMPDEST PUSH1 0x40 MLOAD DUP1 SWAP2 SUB SWAP1 RETURN JUMPDEST CALLVALUE DUP1 ISZERO PUSH2 0x1FA JUMPI PUSH1 0x0 DUP1 REVERT JUMPDEST POP PUSH2 0x203 PUSH2 0xAAF JUMP JUMPDEST PUSH1 0x40 MLOAD PUSH2 0x210 SWAP2 SWAP1 PUSH2 0x108C JUMP JUMPDEST PUSH1 0x40 MLOAD DUP1 SWAP2 SUB SWAP1 RETURN JUMPDEST CALLVALUE DUP1 ISZERO PUSH2 0x225 JUMPI PUSH1 0x0 DUP1 REVERT JUMPDEST POP PUSH2 0x22E PUSH2 0xB6B JUMP JUMPDEST PUSH1 0x40 MLOAD PUSH2 0x23B SWAP2 SWAP1 PUSH2 0x1071 JUMP JUMPDEST PUSH1 0x40 MLOAD DUP1 SWAP2 SUB SWAP1 RETURN JUMPDEST CALLVALUE DUP1 ISZERO PUSH2 0x250 JUMPI PUSH1 0x0 DUP1 REVERT JUMPDEST POP PUSH2 0x26B PUSH1 0x4 DUP1 CALLDATASIZE SUB DUP2 ADD SWAP1 PUSH2 0x266 SWAP2 SWAP1 PUSH2 0x10AE JUMP JUMPDEST PUSH2 0xBBF JUMP JUMPDEST PUSH1 0x40 MLOAD PUSH2 0x27B SWAP5 SWAP4 SWAP3 SWAP2 SWAP1 PUSH2 0x10F6 JUMP JUMPDEST PUSH1 0x40 MLOAD DUP1 SWAP2 SUB SWAP1 RETURN JUMPDEST PUSH1 0x0 PUSH1 0x6 PUSH1 0x0 CALLER PUSH20 0xFFFFFFFFFFFFFFFFFFFFFFFFFFFFFFFFFFFFFFFF AND PUSH20 0xFFFFFFFFFFFFFFFFFFFFFFFFFFFFFFFFFFFFFFFF AND DUP2 MSTORE PUSH1 0x20 ADD SWAP1 DUP2 MSTORE PUSH1 0x20 ADD PUSH1 0x0 KECCAK256 SWAP1 POP PUSH1 0x0 DUP2 PUSH1 0x0 ADD SLOAD EQ ISZERO PUSH2 0x30F JUMPI PUSH1 0x40 MLOAD PUSH32 0x8C379A000000000000000000000000000000000000000000000000000000000 DUP2 MSTORE PUSH1 0x4 ADD PUSH2 0x306 SWAP1 PUSH2 0x1187 JUMP JUMPDEST PUSH1 0x40 MLOAD DUP1 SWAP2 SUB SWAP1 REVERT JUMPDEST DUP1 PUSH1 0x1 ADD PUSH1 0x0 SWAP1 SLOAD SWAP1 PUSH2 0x100 EXP SWAP1 DIV PUSH1 0xFF AND ISZERO PUSH2 0x361 JUMPI PUSH1 0x40 MLOAD PUSH32 0x8C379A000000000000000000000000000000000000000000000000000000000 DUP2 MSTORE PUSH1 0x4 ADD PUSH2 0x358 SWAP1 PUSH2 0x11F3 JUMP JUMPDEST PUSH1 0x40 MLOAD DUP1 SWAP2 SUB SWAP1 REVERT JUMPDEST PUSH1 0x7 DUP3 DUP2 SLOAD DUP2 LT PUSH2 0x375 JUMPI PUSH2 0x374 PUSH2 0x1213 JUMP JUMPDEST JUMPDEST SWAP1 PUSH1 0x0 MSTORE PUSH1 0x20 PUSH1 0x0 KECCAK256 SWAP1 PUSH1 0x3 MUL ADD PUSH1 0x2 ADD PUSH1 0x0 SWAP1 SLOAD SWAP1 PUSH2 0x100 EXP SWAP1 DIV PUSH20 0xFFFFFFFFFFFFFFFFFFFFFFFFFFFFFFFFFFFFFFFF AND PUSH20 0xFFFFFFFFFFFFFFFFFFFFFFFFFFFFFFFFFFFFFFFF AND CALLER PUSH20 0xFFFFFFFFFFFFFFFFFFFFFFFFFFFFFFFFFFFFFFFF AND EQ ISZERO PUSH2 0x415 JUMPI PUSH1 0x40 MLOAD PUSH32 0x8C379A000000000000000000000000000000000000000000000000000000000 DUP2 MSTORE PUSH1 0x4 ADD PUSH2 0x40C SWAP1 PUSH2 0x128E JUMP JUMPDEST PUSH1 0x40 MLOAD DUP1 SWAP2 SUB SWAP1 REVERT JUMPDEST PUSH1 0x1 DUP2 PUSH1 0x1 ADD PUSH1 0x0 PUSH2 0x100 EXP DUP2 SLOAD DUP2 PUSH1 0xFF MUL NOT AND SWAP1 DUP4 ISZERO ISZERO MUL OR SWAP1 SSTORE POP DUP2 DUP2 PUSH1 0x2 ADD DUP2 SWAP1 SSTORE POP DUP1 PUSH1 0x0 ADD SLOAD PUSH1 0x7 DUP4 DUP2 SLOAD DUP2 LT PUSH2 0x454 JUMPI PUSH2 0x453 PUSH2 0x1213 JUMP JUMPDEST JUMPDEST SWAP1 PUSH1 0x0 MSTORE PUSH1 0x20 PUSH1 0x0 KECCAK256 SWAP1 PUSH1 0x3 MUL ADD PUSH1 0x1 ADD PUSH1 0x0 DUP3 DUP3 SLOAD PUSH2 0x474 SWAP2 SWAP1 PUSH2 0x12DD JUMP JUMPDEST SWAP3 POP POP DUP2 SWAP1 SSTORE POP POP POP JUMP JUMPDEST PUSH1 0x7 DUP2 DUP2 SLOAD DUP2 LT PUSH2 0x48F JUMPI PUSH1 0x0 DUP1 REVERT JUMPDEST SWAP1 PUSH1 0x0 MSTORE PUSH1 0x20 PUSH1 0x0 KECCAK256 SWAP1 PUSH1 0x3 MUL ADD PUSH1 0x0 SWAP2 POP SWAP1 POP DUP1 PUSH1 0x0 ADD DUP1 SLOAD PUSH2 0x4B2 SWAP1 PUSH2 0x1362 JUMP JUMPDEST DUP1 PUSH1 0x1F ADD PUSH1 0x20 DUP1 SWAP2 DIV MUL PUSH1 0x20 ADD PUSH1 0x40 MLOAD SWAP1 DUP2 ADD PUSH1 0x40 MSTORE DUP1 SWAP3 SWAP2 SWAP1 DUP2 DUP2 MSTORE PUSH1 0x20 ADD DUP3 DUP1 SLOAD PUSH2 0x4DE SWAP1 PUSH2 0x1362 JUMP JUMPDEST DUP1 ISZERO PUSH2 0x52B JUMPI DUP1 PUSH1 0x1F LT PUSH2 0x500 JUMPI PUSH2 0x100 DUP1 DUP4 SLOAD DIV MUL DUP4 MSTORE SWAP2 PUSH1 0x20 ADD SWAP2 PUSH2 0x52B JUMP JUMPDEST DUP3 ADD SWAP2 SWAP1 PUSH1 0x0 MSTORE PUSH1 0x20 PUSH1 0x0 KECCAK256 SWAP1 JUMPDEST DUP2 SLOAD DUP2 MSTORE SWAP1 PUSH1 0x1 ADD SWAP1 PUSH1 0x20 ADD DUP1 DUP4 GT PUSH2 0x50E JUMPI DUP3 SWAP1 SUB PUSH1 0x1F AND DUP3 ADD SWAP2 JUMPDEST POP POP POP POP POP SWAP1 DUP1 PUSH1 0x1 ADD SLOAD SWAP1 DUP1 PUSH1 0x2 ADD PUSH1 0x0 SWAP1 SLOAD SWAP1 PUSH2 0x100 EXP SWAP1 DIV PUSH20 0xFFFFFFFFFFFFFFFFFFFFFFFFFFFFFFFFFFFFFFFF AND SWAP1 POP DUP4 JUMP JUMPDEST PUSH1 0x1 PUSH1 0x0 SWAP1 SLOAD SWAP1 PUSH2 0x100 EXP SWAP1 DIV PUSH20 0xFFFFFFFFFFFFFFFFFFFFFFFFFFFFFFFFFFFFFFFF AND DUP2 JUMP JUMPDEST PUSH1 0x0 PUSH1 0x6 PUSH1 0x0 PUSH1 0x1 PUSH1 0x0 SWAP1 SLOAD SWAP1 PUSH2 0x100 EXP SWAP1 DIV PUSH20 0xFFFFFFFFFFFFFFFFFFFFFFFFFFFFFFFFFFFFFFFF AND PUSH20 0xFFFFFFFFFFFFFFFFFFFFFFFFFFFFFFFFFFFFFFFF AND PUSH20 0xFFFFFFFFFFFFFFFFFFFFFFFFFFFFFFFFFFFFFFFF AND DUP2 MSTORE PUSH1 0x20 ADD SWAP1 DUP2 MSTORE PUSH1 0x20 ADD PUSH1 0x0 KECCAK256 SWAP1 POP DUP1 PUSH1 0x1 ADD PUSH1 0x0 SWAP1 SLOAD SWAP1 PUSH2 0x100 EXP SWAP1 DIV PUSH1 0xFF AND PUSH2 0x63D JUMPI PUSH1 0x40 MLOAD PUSH32 0x8C379A000000000000000000000000000000000000000000000000000000000 DUP2 MSTORE PUSH1 0x4 ADD PUSH2 0x634 SWAP1 PUSH2 0x13E0 JUMP JUMPDEST PUSH1 0x40 MLOAD DUP1 SWAP2 SUB SWAP1 REVERT JUMPDEST PUSH2 0x645 PUSH2 0xB6B JUMP JUMPDEST PUSH20 0xFFFFFFFFFFFFFFFFFFFFFFFFFFFFFFFFFFFFFFFF AND PUSH2 0x8FC PUSH1 0x4 SLOAD SWAP1 DUP2 ISZERO MUL SWAP1 PUSH1 0x40 MLOAD PUSH1 0x0 PUSH1 0x40 MLOAD DUP1 DUP4 SUB DUP2 DUP6 DUP9 DUP9 CALL SWAP4 POP POP POP POP ISZERO DUP1 ISZERO PUSH2 0x68C JUMPI RETURNDATASIZE PUSH1 0x0 DUP1 RETURNDATACOPY RETURNDATASIZE PUSH1 0x0 REVERT JUMPDEST POP POP JUMP JUMPDEST PUSH1 0x0 DUP1 PUSH1 0x0 SWAP1 POP PUSH1 0x0 JUMPDEST PUSH1 0x7 DUP1 SLOAD SWAP1 POP DUP2 LT ISZERO PUSH2 0x713 JUMPI DUP2 PUSH1 0x7 DUP3 DUP2 SLOAD DUP2 LT PUSH2 0x6BC JUMPI PUSH2 0x6BB PUSH2 0x1213 JUMP JUMPDEST JUMPDEST SWAP1 PUSH1 0x0 MSTORE PUSH1 0x20 PUSH1 0x0 KECCAK256 SWAP1 PUSH1 0x3 MUL ADD PUSH1 0x1 ADD SLOAD GT ISZERO PUSH2 0x700 JUMPI PUSH1 0x7 DUP2 DUP2 SLOAD DUP2 LT PUSH2 0x6E8 JUMPI PUSH2 0x6E7 PUSH2 0x1213 JUMP JUMPDEST JUMPDEST SWAP1 PUSH1 0x0 MSTORE PUSH1 0x20 PUSH1 0x0 KECCAK256 SWAP1 PUSH1 0x3 MUL ADD PUSH1 0x1 ADD SLOAD SWAP2 POP DUP1 SWAP3 POP JUMPDEST DUP1 DUP1 PUSH2 0x70B SWAP1 PUSH2 0x1400 JUMP JUMPDEST SWAP2 POP POP PUSH2 0x69A JUMP JUMPDEST POP POP SWAP1 JUMP JUMPDEST PUSH1 0x3 SLOAD TIMESTAMP LT PUSH2 0x73D JUMPI PUSH1 0x0 PUSH1 0x1 PUSH1 0x14 PUSH2 0x100 EXP DUP2 SLOAD DUP2 PUSH1 0xFF MUL NOT AND SWAP1 DUP4 ISZERO ISZERO MUL OR SWAP1 SSTORE POP JUMPDEST PUSH1 0x1 ISZERO ISZERO PUSH1 0x1 PUSH1 0x14 SWAP1 SLOAD SWAP1 PUSH2 0x100 EXP SWAP1 DIV PUSH1 0xFF AND ISZERO ISZERO EQ PUSH2 0x793 JUMPI PUSH1 0x40 MLOAD PUSH32 0x8C379A000000000000000000000000000000000000000000000000000000000 DUP2 MSTORE PUSH1 0x4 ADD PUSH2 0x78A SWAP1 PUSH2 0x1495 JUMP JUMPDEST PUSH1 0x40 MLOAD DUP1 SWAP2 SUB SWAP1 REVERT JUMPDEST PUSH1 0x6 PUSH1 0x0 DUP4 PUSH20 0xFFFFFFFFFFFFFFFFFFFFFFFFFFFFFFFFFFFFFFFF AND PUSH20 0xFFFFFFFFFFFFFFFFFFFFFFFFFFFFFFFFFFFFFFFF AND DUP2 MSTORE PUSH1 0x20 ADD SWAP1 DUP2 MSTORE PUSH1 0x20 ADD PUSH1 0x0 KECCAK256 PUSH1 0x1 ADD PUSH1 0x0 SWAP1 SLOAD SWAP1 PUSH2 0x100 EXP SWAP1 DIV PUSH1 0xFF AND ISZERO PUSH2 0x823 JUMPI PUSH1 0x40 MLOAD PUSH32 0x8C379A000000000000000000000000000000000000000000000000000000000 DUP2 MSTORE PUSH1 0x4 ADD PUSH2 0x81A SWAP1 PUSH2 0x1501 JUMP JUMPDEST PUSH1 0x40 MLOAD DUP1 SWAP2 SUB SWAP1 REVERT JUMPDEST PUSH1 0x0 PUSH1 0x6 PUSH1 0x0 DUP5 PUSH20 0xFFFFFFFFFFFFFFFFFFFFFFFFFFFFFFFFFFFFFFFF AND PUSH20 0xFFFFFFFFFFFFFFFFFFFFFFFFFFFFFFFFFFFFFFFF AND DUP2 MSTORE PUSH1 0x20 ADD SWAP1 DUP2 MSTORE PUSH1 0x20 ADD PUSH1 0x0 KECCAK256 PUSH1 0x0 ADD SLOAD EQ PUSH2 0x8A8 JUMPI PUSH1 0x40 MLOAD PUSH32 0x8C379A000000000000000000000000000000000000000000000000000000000 DUP2 MSTORE PUSH1 0x4 ADD PUSH2 0x89F SWAP1 PUSH2 0x156D JUMP JUMPDEST PUSH1 0x40 MLOAD DUP1 SWAP2 SUB SWAP1 REVERT JUMPDEST PUSH1 0x1 PUSH1 0x6 PUSH1 0x0 DUP5 PUSH20 0xFFFFFFFFFFFFFFFFFFFFFFFFFFFFFFFFFFFFFFFF AND PUSH20 0xFFFFFFFFFFFFFFFFFFFFFFFFFFFFFFFFFFFFFFFF AND DUP2 MSTORE PUSH1 0x20 ADD SWAP1 DUP2 MSTORE PUSH1 0x20 ADD PUSH1 0x0 KECCAK256 PUSH1 0x0 ADD DUP2 SWAP1 SSTORE POP PUSH1 0x7 PUSH1 0x40 MLOAD DUP1 PUSH1 0x60 ADD PUSH1 0x40 MSTORE DUP1 DUP4 DUP2 MSTORE PUSH1 0x20 ADD PUSH1 0x0 DUP2 MSTORE PUSH1 0x20 ADD DUP5 PUSH20 0xFFFFFFFFFFFFFFFFFFFFFFFFFFFFFFFFFFFFFFFF AND DUP2 MSTORE POP SWAP1 DUP1 PUSH1 0x1 DUP2 SLOAD ADD DUP1 DUP3 SSTORE DUP1 SWAP2 POP POP PUSH1 0x1 SWAP1 SUB SWAP1 PUSH1 0x0 MSTORE PUSH1 0x20 PUSH1 0x0 KECCAK256 SWAP1 PUSH1 0x3 MUL ADD PUSH1 0x0 SWAP1 SWAP2 SWAP1 SWAP2 SWAP1 SWAP2 POP PUSH1 0x0 DUP3 ADD MLOAD DUP2 PUSH1 0x0 ADD SWAP1 DUP1 MLOAD SWAP1 PUSH1 0x20 ADD SWAP1 PUSH2 0x969 SWAP3 SWAP2 SWAP1 PUSH2 0xC1C JUMP JUMPDEST POP PUSH1 0x20 DUP3 ADD MLOAD DUP2 PUSH1 0x1 ADD SSTORE PUSH1 0x40 DUP3 ADD MLOAD DUP2 PUSH1 0x2 ADD PUSH1 0x0 PUSH2 0x100 EXP DUP2 SLOAD DUP2 PUSH20 0xFFFFFFFFFFFFFFFFFFFFFFFFFFFFFFFFFFFFFFFF MUL NOT AND SWAP1 DUP4 PUSH20 0xFFFFFFFFFFFFFFFFFFFFFFFFFFFFFFFFFFFFFFFF AND MUL OR SWAP1 SSTORE POP POP POP POP POP JUMP JUMPDEST PUSH8 0xDE0B6B3A7640000 DUP2 PUSH2 0x9D5 SWAP2 SWAP1 PUSH2 0x158D JUMP JUMPDEST PUSH1 0x4 SLOAD PUSH2 0x9E2 SWAP2 SWAP1 PUSH2 0x12DD JUMP JUMPDEST PUSH1 0x4 DUP2 SWAP1 SSTORE POP DUP1 CALLER PUSH20 0xFFFFFFFFFFFFFFFFFFFFFFFFFFFFFFFFFFFFFFFF AND BALANCE LT ISZERO PUSH2 0xA42 JUMPI PUSH1 0x40 MLOAD PUSH32 0x8C379A000000000000000000000000000000000000000000000000000000000 DUP2 MSTORE PUSH1 0x4 ADD PUSH2 0xA39 SWAP1 PUSH2 0x1633 JUMP JUMPDEST PUSH1 0x40 MLOAD DUP1 SWAP2 SUB SWAP1 REVERT JUMPDEST PUSH1 0x4 SLOAD CALLVALUE EQ PUSH2 0xA86 JUMPI PUSH1 0x40 MLOAD PUSH32 0x8C379A000000000000000000000000000000000000000000000000000000000 DUP2 MSTORE PUSH1 0x4 ADD PUSH2 0xA7D SWAP1 PUSH2 0x169F JUMP JUMPDEST PUSH1 0x40 MLOAD DUP1 SWAP2 SUB SWAP1 REVERT JUMPDEST POP JUMP JUMPDEST PUSH1 0x5 PUSH1 0x0 SWAP1 SLOAD SWAP1 PUSH2 0x100 EXP SWAP1 DIV PUSH20 0xFFFFFFFFFFFFFFFFFFFFFFFFFFFFFFFFFFFFFFFF AND DUP2 JUMP JUMPDEST PUSH1 0x60 PUSH1 0x7 PUSH2 0xABB PUSH2 0x690 JUMP JUMPDEST DUP2 SLOAD DUP2 LT PUSH2 0xACC JUMPI PUSH2 0xACB PUSH2 0x1213 JUMP JUMPDEST JUMPDEST SWAP1 PUSH1 0x0 MSTORE PUSH1 0x20 PUSH1 0x0 KECCAK256 SWAP1 PUSH1 0x3 MUL ADD PUSH1 0x0 ADD DUP1 SLOAD PUSH2 0xAE8 SWAP1 PUSH2 0x1362 JUMP JUMPDEST DUP1 PUSH1 0x1F ADD PUSH1 0x20 DUP1 SWAP2 DIV MUL PUSH1 0x20 ADD PUSH1 0x40 MLOAD SWAP1 DUP2 ADD PUSH1 0x40 MSTORE DUP1 SWAP3 SWAP2 SWAP1 DUP2 DUP2 MSTORE PUSH1 0x20 ADD DUP3 DUP1 SLOAD PUSH2 0xB14 SWAP1 PUSH2 0x1362 JUMP JUMPDEST DUP1 ISZERO PUSH2 0xB61 JUMPI DUP1 PUSH1 0x1F LT PUSH2 0xB36 JUMPI PUSH2 0x100 DUP1 DUP4 SLOAD DIV MUL DUP4 MSTORE SWAP2 PUSH1 0x20 ADD SWAP2 PUSH2 0xB61 JUMP JUMPDEST DUP3 ADD SWAP2 SWAP1 PUSH1 0x0 MSTORE PUSH1 0x20 PUSH1 0x0 KECCAK256 SWAP1 JUMPDEST DUP2 SLOAD DUP2 MSTORE SWAP1 PUSH1 0x1 ADD SWAP1 PUSH1 0x20 ADD DUP1 DUP4 GT PUSH2 0xB44 JUMPI DUP3 SWAP1 SUB PUSH1 0x1F AND DUP3 ADD SWAP2 JUMPDEST POP POP POP POP POP SWAP1 POP SWAP1 JUMP JUMPDEST PUSH1 0x0 PUSH1 0x7 PUSH2 0xB77 PUSH2 0x690 JUMP JUMPDEST DUP2 SLOAD DUP2 LT PUSH2 0xB88 JUMPI PUSH2 0xB87 PUSH2 0x1213 JUMP JUMPDEST JUMPDEST SWAP1 PUSH1 0x0 MSTORE PUSH1 0x20 PUSH1 0x0 KECCAK256 SWAP1 PUSH1 0x3 MUL ADD PUSH1 0x2 ADD PUSH1 0x0 SWAP1 SLOAD SWAP1 PUSH2 0x100 EXP SWAP1 DIV PUSH20 0xFFFFFFFFFFFFFFFFFFFFFFFFFFFFFFFFFFFFFFFF AND SWAP1 POP SWAP1 JUMP JUMPDEST PUSH1 0x6 PUSH1 0x20 MSTORE DUP1 PUSH1 0x0 MSTORE PUSH1 0x40 PUSH1 0x0 KECCAK256 PUSH1 0x0 SWAP2 POP SWAP1 POP DUP1 PUSH1 0x0 ADD SLOAD SWAP1 DUP1 PUSH1 0x1 ADD PUSH1 0x0 SWAP1 SLOAD SWAP1 PUSH2 0x100 EXP SWAP1 DIV PUSH1 0xFF AND SWAP1 DUP1 PUSH1 0x1 ADD PUSH1 0x1 SWAP1 SLOAD SWAP1 PUSH2 0x100 EXP SWAP1 DIV PUSH20 0xFFFFFFFFFFFFFFFFFFFFFFFFFFFFFFFFFFFFFFFF AND SWAP1 DUP1 PUSH1 0x2 ADD SLOAD SWAP1 POP DUP5 JUMP JUMPDEST DUP3 DUP1 SLOAD PUSH2 0xC28 SWAP1 PUSH2 0x1362 JUMP JUMPDEST SWAP1 PUSH1 0x0 MSTORE PUSH1 0x20 PUSH1 0x0 KECCAK256 SWAP1 PUSH1 0x1F ADD PUSH1 0x20 SWAP1 DIV DUP2 ADD SWAP3 DUP3 PUSH2 0xC4A JUMPI PUSH1 0x0 DUP6 SSTORE PUSH2 0xC91 JUMP JUMPDEST DUP3 PUSH1 0x1F LT PUSH2 0xC63 JUMPI DUP1 MLOAD PUSH1 0xFF NOT AND DUP4 DUP1 ADD OR DUP6 SSTORE PUSH2 0xC91 JUMP JUMPDEST DUP3 DUP1 ADD PUSH1 0x1 ADD DUP6 SSTORE DUP3 ISZERO PUSH2 0xC91 JUMPI SWAP2 DUP3 ADD JUMPDEST DUP3 DUP2 GT ISZERO PUSH2 0xC90 JUMPI DUP3 MLOAD DUP3 SSTORE SWAP2 PUSH1 0x20 ADD SWAP2 SWAP1 PUSH1 0x1 ADD SWAP1 PUSH2 0xC75 JUMP JUMPDEST JUMPDEST POP SWAP1 POP PUSH2 0xC9E SWAP2 SWAP1 PUSH2 0xCA2 JUMP JUMPDEST POP SWAP1 JUMP JUMPDEST JUMPDEST DUP1 DUP3 GT ISZERO PUSH2 0xCBB JUMPI PUSH1 0x0 DUP2 PUSH1 0x0 SWAP1 SSTORE POP PUSH1 0x1 ADD PUSH2 0xCA3 JUMP JUMPDEST POP SWAP1 JUMP JUMPDEST PUSH1 0x0 PUSH1 0x40 MLOAD SWAP1 POP SWAP1 JUMP JUMPDEST PUSH1 0x0 DUP1 REVERT JUMPDEST PUSH1 0x0 DUP1 REVERT JUMPDEST PUSH1 0x0 DUP2 SWAP1 POP SWAP2 SWAP1 POP JUMP JUMPDEST PUSH2 0xCE6 DUP2 PUSH2 0xCD3 JUMP JUMPDEST DUP2 EQ PUSH2 0xCF1 JUMPI PUSH1 0x0 DUP1 REVERT JUMPDEST POP JUMP JUMPDEST PUSH1 0x0 DUP2 CALLDATALOAD SWAP1 POP PUSH2 0xD03 DUP2 PUSH2 0xCDD JUMP JUMPDEST SWAP3 SWAP2 POP POP JUMP JUMPDEST PUSH1 0x0 PUSH1 0x20 DUP3 DUP5 SUB SLT ISZERO PUSH2 0xD1F JUMPI PUSH2 0xD1E PUSH2 0xCC9 JUMP JUMPDEST JUMPDEST PUSH1 0x0 PUSH2 0xD2D DUP5 DUP3 DUP6 ADD PUSH2 0xCF4 JUMP JUMPDEST SWAP2 POP POP SWAP3 SWAP2 POP POP JUMP JUMPDEST PUSH1 0x0 DUP2 MLOAD SWAP1 POP SWAP2 SWAP1 POP JUMP JUMPDEST PUSH1 0x0 DUP3 DUP3 MSTORE PUSH1 0x20 DUP3 ADD SWAP1 POP SWAP3 SWAP2 POP POP JUMP JUMPDEST PUSH1 0x0 JUMPDEST DUP4 DUP2 LT ISZERO PUSH2 0xD70 JUMPI DUP1 DUP3 ADD MLOAD DUP2 DUP5 ADD MSTORE PUSH1 0x20 DUP2 ADD SWAP1 POP PUSH2 0xD55 JUMP JUMPDEST DUP4 DUP2 GT ISZERO PUSH2 0xD7F JUMPI PUSH1 0x0 DUP5 DUP5 ADD MSTORE JUMPDEST POP POP POP POP JUMP JUMPDEST PUSH1 0x0 PUSH1 0x1F NOT PUSH1 0x1F DUP4 ADD AND SWAP1 POP SWAP2 SWAP1 POP JUMP JUMPDEST PUSH1 0x0 PUSH2 0xDA1 DUP3 PUSH2 0xD36 JUMP JUMPDEST PUSH2 0xDAB DUP2 DUP6 PUSH2 0xD41 JUMP JUMPDEST SWAP4 POP PUSH2 0xDBB DUP2 DUP6 PUSH1 0x20 DUP7 ADD PUSH2 0xD52 JUMP JUMPDEST PUSH2 0xDC4 DUP2 PUSH2 0xD85 JUMP JUMPDEST DUP5 ADD SWAP2 POP POP SWAP3 SWAP2 POP POP JUMP JUMPDEST PUSH2 0xDD8 DUP2 PUSH2 0xCD3 JUMP JUMPDEST DUP3 MSTORE POP POP JUMP JUMPDEST PUSH1 0x0 PUSH20 0xFFFFFFFFFFFFFFFFFFFFFFFFFFFFFFFFFFFFFFFF DUP3 AND SWAP1 POP SWAP2 SWAP1 POP JUMP JUMPDEST PUSH1 0x0 PUSH2 0xE09 DUP3 PUSH2 0xDDE JUMP JUMPDEST SWAP1 POP SWAP2 SWAP1 POP JUMP JUMPDEST PUSH2 0xE19 DUP2 PUSH2 0xDFE JUMP JUMPDEST DUP3 MSTORE POP POP JUMP JUMPDEST PUSH1 0x0 PUSH1 0x60 DUP3 ADD SWAP1 POP DUP2 DUP2 SUB PUSH1 0x0 DUP4 ADD MSTORE PUSH2 0xE39 DUP2 DUP7 PUSH2 0xD96 JUMP JUMPDEST SWAP1 POP PUSH2 0xE48 PUSH1 0x20 DUP4 ADD DUP6 PUSH2 0xDCF JUMP JUMPDEST PUSH2 0xE55 PUSH1 0x40 DUP4 ADD DUP5 PUSH2 0xE10 JUMP JUMPDEST SWAP5 SWAP4 POP POP POP POP JUMP JUMPDEST PUSH1 0x0 PUSH1 0x20 DUP3 ADD SWAP1 POP PUSH2 0xE72 PUSH1 0x0 DUP4 ADD DUP5 PUSH2 0xE10 JUMP JUMPDEST SWAP3 SWAP2 POP POP JUMP JUMPDEST PUSH1 0x0 PUSH1 0x20 DUP3 ADD SWAP1 POP PUSH2 0xE8D PUSH1 0x0 DUP4 ADD DUP5 PUSH2 0xDCF JUMP JUMPDEST SWAP3 SWAP2 POP POP JUMP JUMPDEST PUSH2 0xE9C DUP2 PUSH2 0xDFE JUMP JUMPDEST DUP2 EQ PUSH2 0xEA7 JUMPI PUSH1 0x0 DUP1 REVERT JUMPDEST POP JUMP JUMPDEST PUSH1 0x0 DUP2 CALLDATALOAD SWAP1 POP PUSH2 0xEB9 DUP2 PUSH2 0xE93 JUMP JUMPDEST SWAP3 SWAP2 POP POP JUMP JUMPDEST PUSH1 0x0 DUP1 REVERT JUMPDEST PUSH1 0x0 DUP1 REVERT JUMPDEST PUSH32 0x4E487B7100000000000000000000000000000000000000000000000000000000 PUSH1 0x0 MSTORE PUSH1 0x41 PUSH1 0x4 MSTORE PUSH1 0x24 PUSH1 0x0 REVERT JUMPDEST PUSH2 0xF01 DUP3 PUSH2 0xD85 JUMP JUMPDEST DUP2 ADD DUP2 DUP2 LT PUSH8 0xFFFFFFFFFFFFFFFF DUP3 GT OR ISZERO PUSH2 0xF20 JUMPI PUSH2 0xF1F PUSH2 0xEC9 JUMP JUMPDEST JUMPDEST DUP1 PUSH1 0x40 MSTORE POP POP POP JUMP JUMPDEST PUSH1 0x0 PUSH2 0xF33 PUSH2 0xCBF JUMP JUMPDEST SWAP1 POP PUSH2 0xF3F DUP3 DUP3 PUSH2 0xEF8 JUMP JUMPDEST SWAP2 SWAP1 POP JUMP JUMPDEST PUSH1 0x0 PUSH8 0xFFFFFFFFFFFFFFFF DUP3 GT ISZERO PUSH2 0xF5F JUMPI PUSH2 0xF5E PUSH2 0xEC9 JUMP JUMPDEST JUMPDEST PUSH2 0xF68 DUP3 PUSH2 0xD85 JUMP JUMPDEST SWAP1 POP PUSH1 0x20 DUP2 ADD SWAP1 POP SWAP2 SWAP1 POP JUMP JUMPDEST DUP3 DUP2 DUP4 CALLDATACOPY PUSH1 0x0 DUP4 DUP4 ADD MSTORE POP POP POP JUMP JUMPDEST PUSH1 0x0 PUSH2 0xF97 PUSH2 0xF92 DUP5 PUSH2 0xF44 JUMP JUMPDEST PUSH2 0xF29 JUMP JUMPDEST SWAP1 POP DUP3 DUP2 MSTORE PUSH1 0x20 DUP2 ADD DUP5 DUP5 DUP5 ADD GT ISZERO PUSH2 0xFB3 JUMPI PUSH2 0xFB2 PUSH2 0xEC4 JUMP JUMPDEST JUMPDEST PUSH2 0xFBE DUP5 DUP3 DUP6 PUSH2 0xF75 JUMP JUMPDEST POP SWAP4 SWAP3 POP POP POP JUMP JUMPDEST PUSH1 0x0 DUP3 PUSH1 0x1F DUP4 ADD SLT PUSH2 0xFDB JUMPI PUSH2 0xFDA PUSH2 0xEBF JUMP JUMPDEST JUMPDEST DUP2 CALLDATALOAD PUSH2 0xFEB DUP5 DUP3 PUSH1 0x20 DUP7 ADD PUSH2 0xF84 JUMP JUMPDEST SWAP2 POP POP SWAP3 SWAP2 POP POP JUMP JUMPDEST PUSH1 0x0 DUP1 PUSH1 0x40 DUP4 DUP6 SUB SLT ISZERO PUSH2 0x100B JUMPI PUSH2 0x100A PUSH2 0xCC9 JUMP JUMPDEST JUMPDEST PUSH1 0x0 PUSH2 0x1019 DUP6 DUP3 DUP7 ADD PUSH2 0xEAA JUMP JUMPDEST SWAP3 POP POP PUSH1 0x20 DUP4 ADD CALLDATALOAD PUSH8 0xFFFFFFFFFFFFFFFF DUP2 GT ISZERO PUSH2 0x103A JUMPI PUSH2 0x1039 PUSH2 0xCCE JUMP JUMPDEST JUMPDEST PUSH2 0x1046 DUP6 DUP3 DUP7 ADD PUSH2 0xFC6 JUMP JUMPDEST SWAP2 POP POP SWAP3 POP SWAP3 SWAP1 POP JUMP JUMPDEST PUSH1 0x0 PUSH2 0x105B DUP3 PUSH2 0xDDE JUMP JUMPDEST SWAP1 POP SWAP2 SWAP1 POP JUMP JUMPDEST PUSH2 0x106B DUP2 PUSH2 0x1050 JUMP JUMPDEST DUP3 MSTORE POP POP JUMP JUMPDEST PUSH1 0x0 PUSH1 0x20 DUP3 ADD SWAP1 POP PUSH2 0x1086 PUSH1 0x0 DUP4 ADD DUP5 PUSH2 0x1062 JUMP JUMPDEST SWAP3 SWAP2 POP POP JUMP JUMPDEST PUSH1 0x0 PUSH1 0x20 DUP3 ADD SWAP1 POP DUP2 DUP2 SUB PUSH1 0x0 DUP4 ADD MSTORE PUSH2 0x10A6 DUP2 DUP5 PUSH2 0xD96 JUMP JUMPDEST SWAP1 POP SWAP3 SWAP2 POP POP JUMP JUMPDEST PUSH1 0x0 PUSH1 0x20 DUP3 DUP5 SUB SLT ISZERO PUSH2 0x10C4 JUMPI PUSH2 0x10C3 PUSH2 0xCC9 JUMP JUMPDEST JUMPDEST PUSH1 0x0 PUSH2 0x10D2 DUP5 DUP3 DUP6 ADD PUSH2 0xEAA JUMP JUMPDEST SWAP2 POP POP SWAP3 SWAP2 POP POP JUMP JUMPDEST PUSH1 0x0 DUP2 ISZERO ISZERO SWAP1 POP SWAP2 SWAP1 POP JUMP JUMPDEST PUSH2 0x10F0 DUP2 PUSH2 0x10DB JUMP JUMPDEST DUP3 MSTORE POP POP JUMP JUMPDEST PUSH1 0x0 PUSH1 0x80 DUP3 ADD SWAP1 POP PUSH2 0x110B PUSH1 0x0 DUP4 ADD DUP8 PUSH2 0xDCF JUMP JUMPDEST PUSH2 0x1118 PUSH1 0x20 DUP4 ADD DUP7 PUSH2 0x10E7 JUMP JUMPDEST PUSH2 0x1125 PUSH1 0x40 DUP4 ADD DUP6 PUSH2 0xE10 JUMP JUMPDEST PUSH2 0x1132 PUSH1 0x60 DUP4 ADD DUP5 PUSH2 0xDCF JUMP JUMPDEST SWAP6 SWAP5 POP POP POP POP POP JUMP JUMPDEST PUSH32 0x486173206E6F20726967687420746F20766F7465000000000000000000000000 PUSH1 0x0 DUP3 ADD MSTORE POP JUMP JUMPDEST PUSH1 0x0 PUSH2 0x1171 PUSH1 0x14 DUP4 PUSH2 0xD41 JUMP JUMPDEST SWAP2 POP PUSH2 0x117C DUP3 PUSH2 0x113B JUMP JUMPDEST PUSH1 0x20 DUP3 ADD SWAP1 POP SWAP2 SWAP1 POP JUMP JUMPDEST PUSH1 0x0 PUSH1 0x20 DUP3 ADD SWAP1 POP DUP2 DUP2 SUB PUSH1 0x0 DUP4 ADD MSTORE PUSH2 0x11A0 DUP2 PUSH2 0x1164 JUMP JUMPDEST SWAP1 POP SWAP2 SWAP1 POP JUMP JUMPDEST PUSH32 0x416C726561647920766F7465642E000000000000000000000000000000000000 PUSH1 0x0 DUP3 ADD MSTORE POP JUMP JUMPDEST PUSH1 0x0 PUSH2 0x11DD PUSH1 0xE DUP4 PUSH2 0xD41 JUMP JUMPDEST SWAP2 POP PUSH2 0x11E8 DUP3 PUSH2 0x11A7 JUMP JUMPDEST PUSH1 0x20 DUP3 ADD SWAP1 POP SWAP2 SWAP1 POP JUMP JUMPDEST PUSH1 0x0 PUSH1 0x20 DUP3 ADD SWAP1 POP DUP2 DUP2 SUB PUSH1 0x0 DUP4 ADD MSTORE PUSH2 0x120C DUP2 PUSH2 0x11D0 JUMP JUMPDEST SWAP1 POP SWAP2 SWAP1 POP JUMP JUMPDEST PUSH32 0x4E487B7100000000000000000000000000000000000000000000000000000000 PUSH1 0x0 MSTORE PUSH1 0x32 PUSH1 0x4 MSTORE PUSH1 0x24 PUSH1 0x0 REVERT JUMPDEST PUSH32 0x43616E6E6F7420766F746520666F7220796F757273656C662100000000000000 PUSH1 0x0 DUP3 ADD MSTORE POP JUMP JUMPDEST PUSH1 0x0 PUSH2 0x1278 PUSH1 0x19 DUP4 PUSH2 0xD41 JUMP JUMPDEST SWAP2 POP PUSH2 0x1283 DUP3 PUSH2 0x1242 JUMP JUMPDEST PUSH1 0x20 DUP3 ADD SWAP1 POP SWAP2 SWAP1 POP JUMP JUMPDEST PUSH1 0x0 PUSH1 0x20 DUP3 ADD SWAP1 POP DUP2 DUP2 SUB PUSH1 0x0 DUP4 ADD MSTORE PUSH2 0x12A7 DUP2 PUSH2 0x126B JUMP JUMPDEST SWAP1 POP SWAP2 SWAP1 POP JUMP JUMPDEST PUSH32 0x4E487B7100000000000000000000000000000000000000000000000000000000 PUSH1 0x0 MSTORE PUSH1 0x11 PUSH1 0x4 MSTORE PUSH1 0x24 PUSH1 0x0 REVERT JUMPDEST PUSH1 0x0 PUSH2 0x12E8 DUP3 PUSH2 0xCD3 JUMP JUMPDEST SWAP2 POP PUSH2 0x12F3 DUP4 PUSH2 0xCD3 JUMP JUMPDEST SWAP3 POP DUP3 PUSH32 0xFFFFFFFFFFFFFFFFFFFFFFFFFFFFFFFFFFFFFFFFFFFFFFFFFFFFFFFFFFFFFFFF SUB DUP3 GT ISZERO PUSH2 0x1328 JUMPI PUSH2 0x1327 PUSH2 0x12AE JUMP JUMPDEST JUMPDEST DUP3 DUP3 ADD SWAP1 POP SWAP3 SWAP2 POP POP JUMP JUMPDEST PUSH32 0x4E487B7100000000000000000000000000000000000000000000000000000000 PUSH1 0x0 MSTORE PUSH1 0x22 PUSH1 0x4 MSTORE PUSH1 0x24 PUSH1 0x0 REVERT JUMPDEST PUSH1 0x0 PUSH1 0x2 DUP3 DIV SWAP1 POP PUSH1 0x1 DUP3 AND DUP1 PUSH2 0x137A JUMPI PUSH1 0x7F DUP3 AND SWAP2 POP JUMPDEST PUSH1 0x20 DUP3 LT DUP2 EQ ISZERO PUSH2 0x138E JUMPI PUSH2 0x138D PUSH2 0x1333 JUMP JUMPDEST JUMPDEST POP SWAP2 SWAP1 POP JUMP JUMPDEST PUSH32 0x4F7267616E697A6572206E6565647320746F20766F74652E0000000000000000 PUSH1 0x0 DUP3 ADD MSTORE POP JUMP JUMPDEST PUSH1 0x0 PUSH2 0x13CA PUSH1 0x18 DUP4 PUSH2 0xD41 JUMP JUMPDEST SWAP2 POP PUSH2 0x13D5 DUP3 PUSH2 0x1394 JUMP JUMPDEST PUSH1 0x20 DUP3 ADD SWAP1 POP SWAP2 SWAP1 POP JUMP JUMPDEST PUSH1 0x0 PUSH1 0x20 DUP3 ADD SWAP1 POP DUP2 DUP2 SUB PUSH1 0x0 DUP4 ADD MSTORE PUSH2 0x13F9 DUP2 PUSH2 0x13BD JUMP JUMPDEST SWAP1 POP SWAP2 SWAP1 POP JUMP JUMPDEST PUSH1 0x0 PUSH2 0x140B DUP3 PUSH2 0xCD3 JUMP JUMPDEST SWAP2 POP PUSH32 0xFFFFFFFFFFFFFFFFFFFFFFFFFFFFFFFFFFFFFFFFFFFFFFFFFFFFFFFFFFFFFFFF DUP3 EQ ISZERO PUSH2 0x143E JUMPI PUSH2 0x143D PUSH2 0x12AE JUMP JUMPDEST JUMPDEST PUSH1 0x1 DUP3 ADD SWAP1 POP SWAP2 SWAP1 POP JUMP JUMPDEST PUSH32 0x506173746569733A204861636B6174686F6E20697320636C6F7365642E000000 PUSH1 0x0 DUP3 ADD MSTORE POP JUMP JUMPDEST PUSH1 0x0 PUSH2 0x147F PUSH1 0x1D DUP4 PUSH2 0xD41 JUMP JUMPDEST SWAP2 POP PUSH2 0x148A DUP3 PUSH2 0x1449 JUMP JUMPDEST PUSH1 0x20 DUP3 ADD SWAP1 POP SWAP2 SWAP1 POP JUMP JUMPDEST PUSH1 0x0 PUSH1 0x20 DUP3 ADD SWAP1 POP DUP2 DUP2 SUB PUSH1 0x0 DUP4 ADD MSTORE PUSH2 0x14AE DUP2 PUSH2 0x1472 JUMP JUMPDEST SWAP1 POP SWAP2 SWAP1 POP JUMP JUMPDEST PUSH32 0x546865206861636B657220616C726561647920766F7465642E00000000000000 PUSH1 0x0 DUP3 ADD MSTORE POP JUMP JUMPDEST PUSH1 0x0 PUSH2 0x14EB PUSH1 0x19 DUP4 PUSH2 0xD41 JUMP JUMPDEST SWAP2 POP PUSH2 0x14F6 DUP3 PUSH2 0x14B5 JUMP JUMPDEST PUSH1 0x20 DUP3 ADD SWAP1 POP SWAP2 SWAP1 POP JUMP JUMPDEST PUSH1 0x0 PUSH1 0x20 DUP3 ADD SWAP1 POP DUP2 DUP2 SUB PUSH1 0x0 DUP4 ADD MSTORE PUSH2 0x151A DUP2 PUSH2 0x14DE JUMP JUMPDEST SWAP1 POP SWAP2 SWAP1 POP JUMP JUMPDEST PUSH32 0x546865206861636B657220686173207375626D69747465642E00000000000000 PUSH1 0x0 DUP3 ADD MSTORE POP JUMP JUMPDEST PUSH1 0x0 PUSH2 0x1557 PUSH1 0x19 DUP4 PUSH2 0xD41 JUMP JUMPDEST SWAP2 POP PUSH2 0x1562 DUP3 PUSH2 0x1521 JUMP JUMPDEST PUSH1 0x20 DUP3 ADD SWAP1 POP SWAP2 SWAP1 POP JUMP JUMPDEST PUSH1 0x0 PUSH1 0x20 DUP3 ADD SWAP1 POP DUP2 DUP2 SUB PUSH1 0x0 DUP4 ADD MSTORE PUSH2 0x1586 DUP2 PUSH2 0x154A JUMP JUMPDEST SWAP1 POP SWAP2 SWAP1 POP JUMP JUMPDEST PUSH1 0x0 PUSH2 0x1598 DUP3 PUSH2 0xCD3 JUMP JUMPDEST SWAP2 POP PUSH2 0x15A3 DUP4 PUSH2 0xCD3 JUMP JUMPDEST SWAP3 POP DUP2 PUSH32 0xFFFFFFFFFFFFFFFFFFFFFFFFFFFFFFFFFFFFFFFFFFFFFFFFFFFFFFFFFFFFFFFF DIV DUP4 GT DUP3 ISZERO ISZERO AND ISZERO PUSH2 0x15DC JUMPI PUSH2 0x15DB PUSH2 0x12AE JUMP JUMPDEST JUMPDEST DUP3 DUP3 MUL SWAP1 POP SWAP3 SWAP2 POP POP JUMP JUMPDEST PUSH32 0x506173746569733A20696E73756666696369656E742066756E64732E00000000 PUSH1 0x0 DUP3 ADD MSTORE POP JUMP JUMPDEST PUSH1 0x0 PUSH2 0x161D PUSH1 0x1C DUP4 PUSH2 0xD41 JUMP JUMPDEST SWAP2 POP PUSH2 0x1628 DUP3 PUSH2 0x15E7 JUMP JUMPDEST PUSH1 0x20 DUP3 ADD SWAP1 POP SWAP2 SWAP1 POP JUMP JUMPDEST PUSH1 0x0 PUSH1 0x20 DUP3 ADD SWAP1 POP DUP2 DUP2 SUB PUSH1 0x0 DUP4 ADD MSTORE PUSH2 0x164C DUP2 PUSH2 0x1610 JUMP JUMPDEST SWAP1 POP SWAP2 SWAP1 POP JUMP JUMPDEST PUSH32 0x506173746569733A20556E6D61746368696E672066756E64732E000000000000 PUSH1 0x0 DUP3 ADD MSTORE POP JUMP JUMPDEST PUSH1 0x0 PUSH2 0x1689 PUSH1 0x1A DUP4 PUSH2 0xD41 JUMP JUMPDEST SWAP2 POP PUSH2 0x1694 DUP3 PUSH2 0x1653 JUMP JUMPDEST PUSH1 0x20 DUP3 ADD SWAP1 POP SWAP2 SWAP1 POP JUMP JUMPDEST PUSH1 0x0 PUSH1 0x20 DUP3 ADD SWAP1 POP DUP2 DUP2 SUB PUSH1 0x0 DUP4 ADD MSTORE PUSH2 0x16B8 DUP2 PUSH2 0x167C JUMP JUMPDEST SWAP1 POP SWAP2 SWAP1 POP JUMP INVALID LOG2 PUSH5 0x6970667358 0x22 SLT KECCAK256 PUSH24 0x40F10FE9FCA3B32F2721E9A0CE25A59C749007B52550AB3A CREATE2 PUSH30 0xEE046E3B5964736F6C634300080C0033A2646970667358221220B2C5D1E9 ADDMOD 0x23 0xEE 0x2D DUP9 OR 0x2C SIGNEXTEND 0xB1 JUMPDEST DUP13 0xF7 SWAP16 DUP6 0x28 0xCB PUSH12 0x75ACC1ECB06D3B05F9CCA064 PUSH20 0x6F6C634300080C00330000000000000000000000 "
		},
		"gasEstimates": {
			"creation": {
				"codeDepositCost": "2624200",
				"executionCost": "infinite",
				"totalCost": "infinite"
			},
			"external": {
				"": "173",
				"AddProject(string,string,string,string,string)": "infinite",
				"create(uint256,uint256,string,string,string,uint256,string)": "infinite",
				"getHackathonAddress(uint256)": "4967",
				"getNumDeployedHackathons()": "2423",
				"hackathons(uint256)": "5000"
			}
		},
		"methodIdentifiers": {
			"AddProject(string,string,string,string,string)": "6a65b25d",
			"create(uint256,uint256,string,string,string,uint256,string)": "e8bd3a89",
			"getHackathonAddress(uint256)": "4387feab",
			"getNumDeployedHackathons()": "26337075",
			"hackathons(uint256)": "c1077194"
		}
	},
	"abi": [
		{
			"inputs": [],
			"stateMutability": "payable",
			"type": "constructor"
		},
		{
			"anonymous": false,
			"inputs": [
				{
					"indexed": false,
					"internalType": "uint256",
					"name": "id",
					"type": "uint256"
				},
				{
					"indexed": false,
					"internalType": "address",
					"name": "HackthonAdded",
					"type": "address"
				}
			],
			"name": "newHackathonCreation",
			"type": "event"
		},
		{
			"stateMutability": "payable",
			"type": "fallback"
		},
		{
			"inputs": [
				{
					"internalType": "string",
					"name": "_hackathonAddy",
					"type": "string"
				},
				{
					"internalType": "string",
					"name": "_projectOwner",
					"type": "string"
				},
				{
					"internalType": "string",
					"name": "_projectName",
					"type": "string"
				},
				{
					"internalType": "string",
					"name": "_description",
					"type": "string"
				},
				{
					"internalType": "string",
					"name": "_projectLink",
					"type": "string"
				}
			],
			"name": "AddProject",
			"outputs": [
				{
					"internalType": "bool",
					"name": "",
					"type": "bool"
				}
			],
			"stateMutability": "nonpayable",
			"type": "function"
		},
		{
			"inputs": [
				{
					"internalType": "uint256",
					"name": "amount",
					"type": "uint256"
				},
				{
					"internalType": "uint256",
					"name": "duration_",
					"type": "uint256"
				},
				{
					"internalType": "string",
					"name": "_hackathon_name",
					"type": "string"
				},
				{
					"internalType": "string",
					"name": "_description",
					"type": "string"
				},
				{
					"internalType": "string",
					"name": "_organizer",
					"type": "string"
				},
				{
					"internalType": "uint256",
					"name": "_total_prize",
					"type": "uint256"
				},
				{
					"internalType": "string",
					"name": "_date",
					"type": "string"
				}
			],
			"name": "create",
			"outputs": [
				{
					"internalType": "address",
					"name": "",
					"type": "address"
				},
				{
					"internalType": "uint256",
					"name": "",
					"type": "uint256"
				}
			],
			"stateMutability": "payable",
			"type": "function"
		},
		{
			"inputs": [
				{
					"internalType": "uint256",
					"name": "_id",
					"type": "uint256"
				}
			],
			"name": "getHackathonAddress",
			"outputs": [
				{
					"internalType": "address",
					"name": "",
					"type": "address"
				}
			],
			"stateMutability": "view",
			"type": "function"
		},
		{
			"inputs": [],
			"name": "getNumDeployedHackathons",
			"outputs": [
				{
					"internalType": "uint256",
					"name": "",
					"type": "uint256"
				}
			],
			"stateMutability": "view",
			"type": "function"
		},
		{
			"inputs": [
				{
					"internalType": "uint256",
					"name": "",
					"type": "uint256"
				}
			],
			"name": "hackathons",
			"outputs": [
				{
					"internalType": "address",
					"name": "",
					"type": "address"
				}
			],
			"stateMutability": "view",
			"type": "function"
		},
		{
			"stateMutability": "payable",
			"type": "receive"
		}
	]
}